S02200004353313230425F46696E616C5F50726F6A6563745F50617274322E73726563F0
S113000045C0000060C000005EC000005CC000008D
S11300105AC0000058C0000056C0000054C0000080
S113002052C0000050C000004EC000004CC0000090
S11300304AC000004AC3000046C0000044C000009B
S113004042C0000040C000003EC000003CC00000B0
S11300503AC0000038C0000036C0000034C00000C0
S113006032C0000030C000002EC000002CC00000D0
S11300702AC0000028C0000026C0000024C00000E0
S113008022C0000020C000001EC0000011241FBEBA
S1130090CFEFD0E4DEBFCDBF11E0A0E0B1E0E2E2FB
S11300A0F8E000E00BBF02C007900D92AA30B10740
S11300B0D9F721E0AAE0B1E001C01D92A636B2074B
S11300C0E1F751D3ACC39CCF0197029730F5E0918F
S11300D00A01F0910B01EE5BFE4F808182B9E09141
S11300E00A01F0910B01EC5AFE4F808185B9809191
S11300F00A0190910B018131910539F410920B01A1
S113010010920A0182E090E00895019690930B0109
S113011080930A0182E090E0089581E090E00895E0
S1130120419A419840E050E080E026B130E02095CB
S1130130309522FB662760F970E09B01042E02C013
S1130140220F331F0A94E2F7822B409A40984F5FA4
S11301505F4F4830510549F70895CF93DF93EC0181
S1130160DFDFC330D105A1F03CF4C130D10569F122
S1130170C230D10549F020C0C630D1050CF446C0C8
S1130180C630D10551F018C0883009F041C01DC0F7
S1130190803401F18038C9F428C08823B1F09091EB
S11301A00401923020F49F5F9093040131C08034A5
S11301B089F0803869F519C080E88093030188EFDD
S11301C080930201C1E0D0E023C010920401C3E097
S11301D0D0E01EC0809102018F3191F0880F8160C0
S11301E080930201C4E0D0E013C080910201883FF3
S11301F051F08695806880930201C5E0D0E008C084
S1130200C4E0D0E005C0C5E0D0E002C0C6E0D0E064
S113021080910301809342018091020180935401F3
S1130220CE01DF91CF910895CF93DF93EC0178DF76
S1130230C530D105B9F044F4C130D10509F448C141
S1130240C230D10559F0F1C0C730D10509F4D0C08E
S11302500CF46DC0289709F4D9C0E7C0883009F0C0
S113026039C1FEC0609101016F3739F480910001FA
S1130270813041F0C6E0D0E00AC0809100018130B5
S113028031F403C0C7E0D0E002C0C7E0D0E0409141
S11302900001469582E090E0A62FB0E0A095B095CD
S11302A0FC01EE5BFE4F20812423C9F0FC01EC5AD3
S11302B0FE4F208130E02A233B23232B81F46F3728
S11302C019F0C7E0D0E002C0C8E0D0E0FC01EE5B6A
S11302D0FE4F1082FC01EC5AFE4F1082A8C001961A
S11302E082319105E9F670E060957095660F771F8D
S11302F082E090E0FC01EE5BFE4F2081242391F02C
S1130300FC01EC5AFE4F208130E026233723232BB7
S113031049F4FC01EE5BFE4F1082FC01EC5AFE4FE7
S11303201082C8C001968231910521F780C04091A6
S11303300001413039F4809101018E3F51F4C7E04E
S1130340D0E009C0809101018E3F29F4C5E0D0E0DE
S113035002C0C8E0D0E0469550910101652F70E0DD
S11303606095709582E090E0FC01EE5BFE4F208189
S11303702423C9F0FC01EC5AFE4F208130E02623EF
S11303803723232B81F45E3F19F0C8E0D0E002C08C
S1130390C7E0D0E0FC01EE5BFE4F1082FC01EC5A9A
S11303A0FE4F108244C0019682319105E9F6352F43
S11303B03695306882E090E0FC01EE5BFE4F2081D0
S11303C0242389F0FC01EC5AFE4F20815081232321
S11303D0251309C0FC01EE5BFE4F1082FC01EC5AB0
S11303E0FE4F10824BC001968231910529F71FC040
S11303F080910001803829F0809101018F37F1F557
S113040059C0809101018F3759F546C0809101018F
S11304108E3F29F480910001803881F521C08091BC
S11304200001803809F046C037C0C1E0D0E0C630D2
S1130430D10591F13CF4C130D10559F0C530D10555
S113044079F048C0C730D105C9F0C830D10591F161
S113045041C080E4809300018BEF809301013AC096
S11304608091000186958093000180910101880F9D
S1130470816080930101C5E0D0E02CC0809100012F
S1130480880F8093000180910101880F816080931F
S11304900101C7E0D0E01EC08091000186958093E1
S11304A00001809101018695806880930101C6E076
S11304B0D0E010C080910001880F809300018091EA
S11304C001018695806880930101C8E0D0E002C0F4
S11304D0C2E0D0E08091000180934301809101014A
S11304E080935501CE01DF91CF910895EF92FF9251
S11304F00F931F93CF93DF93EC0112DEC230D1052B
S113050039F0C330D10509F462C0219729F45AC0E7
S1130510883009F05CC059C028EF3FEF82E090E0DA
S11305206894EE24E1F802E110E0CFEFD0E0AFE709
S1130530B0E0FF24F3948A309105F4F4FC01EE5BFF
S1130540FE4FF082AC0142505109BD0102C07595C5
S113055067954A95E2F744275527421B530BFE0142
S113056002C0EE0FFF1F4A95E2F7AF01462BFC01D4
S1130570EC5AFE4F40831CC028303105C8F4FC01FE
S1130580EE5BFE4FE082A801481B590BBE0102C07E
S1130590660F771F4A95E2F7AD01022E02C055950A
S11305A047950A94E2F7462BFC01EC5AFE4F408330
S11305B001962F5F3F4F8231910509F0BCCFC1E016
S11305C0D0E005C0C2E0D0E002C0C3E0D0E0CE017C
S11305D0DF91CF911F910F91FF90EF900895609359
S11305E005017093060180930701909308016093BD
S11305F00C0170930D0180930E0190930F010895E7
S11306008BE0809381008DE790E090938900809344
S1130610880082E080936F0010928500109284001D
S11306208091050190910601A0910701B091080104
S113063080930C0190930D01A0930E01B0930F01D0
S11306408FB780688FBF0895EF92FF920F931F9327
S1130650CF93DF93C1E1D1E00F2EF1E4EF2EF1E06F
S1130660FF2EF02D8E014E815F81688579858A8108
S11306709B81AC81BD81481759076A077B0758F0F5
S1130680EA85FB85888199810995998388831E82EF
S11306901F8218861986F80186819781A085B18505
S11306A00196A11DB11D86839783A087B1872C96DF
S11306B0CE15DF05B9F681E080931001DF91CF916B
S11306C01F910F91FF90EF9008951F920F920FB614
S11306D00F9211240BB60F922F933F934F935F9376
S11306E06F937F938F939F93AF93BF93EF93FF93F6
S11306F080910C0190910D01A0910E01B0910F0118
S11307000197A109B10980930C0190930D01A09365
S11307100E01B0930F01892B8A2B8B2B89F494DF64
S11307208091050190910601A0910701B091080103
S113073080930C0190930D01A0930E01B0930F01CF
S1130740FF91EF91BF91AF919F918F917F916F91A5
S11307505F914F913F912F910F900BBE0F900FBE61
S11307600F901F9018958FEF84B915B881B912B8FE
S113077083E087B984E088B9E1E1F1E01182108275
S113078082E390E0A0E0B0E082839383A483B58306
S113079086839783A087B1872DEA30E03387228749
S11307A01586148644EF51E060E070E04687578771
S11307B0608B718B428B538B648B758B24E131E09E
S11307C0378B268B118E108E828F938FA48FB58FCB
S11307D0868F978FA0A3B1A386E792E093A382A309
S11307E015A214A281E090E0A0E0B0E086A397A354
S11307F0A0A7B1A782A793A7A4A7B5A784E690E072
S113080097A786A761E070E080E090E0E8DEF8DE7C
S1130810809110018823E1F310921001F9CFF8942C
S1050820FFCF04
S10D082240FBF88002010000000012
S9030000FC
