:1000000056C0000071C000006FC000006DC000004D
:100010006BC0000069C0000067C0000065C0000040
:1000200063C0000061C000005FC000005DC0000050
:100030005BC0000063C4000057C0000055C0000052
:1000400053C0000051C000004FC000004DC0000070
:100050004BC0000049C0000047C0000045C0000080
:1000600043C0000041C000003FC000003DC0000090
:100070003BC0000039C0000037C0000035C00000A0
:1000800033C0000031C000002FC0000063016801D0
:100090006D0171019E01AC011A028502A502D60212
:1000A0002003DD02E302EB020703F902130311242C
:1000B0001FBECFEFD0E4DEBFCDBF11E0A0E0B1E0C6
:1000C000E8E7FAE000E00BBF02C007900D92AA310A
:1000D000B107D9F721E0AAE1B1E001C01D92A6372E
:1000E000B207E1F759D4C6C48BCF2F923F92F101EA
:1000F000828186959091010189131CC090916401C1
:10010000809100019823891315C020916401982FD4
:1001100096959068922389130DC020916401982FC1
:1001200096959695906C9223891304C085E090E093
:10013000918380833F902F9008950197029730F527
:10014000E0911A01F0911B01EE5AFE4F808182B9B5
:10015000E0911A01F0911B01EC59FE4F808185B9A5
:1001600080911A0190911B018131910539F410920F
:100170001B0110921A0182E090E00895019690937D
:100180001B0180931A0182E090E0089581E090E0E5
:100190000895419A419840E050E080E026B130E077
:1001A0002095309522FB662760F970E09B01042EB4
:1001B00002C0220F331F0A94E2F7822B409A409824
:1001C0004F5F5F4F4830510549F70895CF93DF9354
:1001D000EC01DFDFC330D105A1F03CF4C130D10523
:1001E00069F1C230D10549F020C0C630D1050CF408
:1001F00046C0C630D10551F018C0883009F041C062
:100200001DC0803401F18038C9F428C08823B1F0C2
:1002100090910401923020F49F5F9093040131C0CB
:10022000803489F0803869F519C080E88093030133
:1002300088EF80930201C1E0D0E023C01092040156
:10024000C3E0D0E01EC0809102018F3191F0880F91
:10025000816080930201C4E0D0E013C0809102016C
:10026000883F51F08695806880930201C5E0D0E018
:1002700008C0C4E0D0E005C0C5E0D0E002C0C6E0E0
:10028000D0E080910301809352018091020180931C
:100290006401CE01DF91CF9108952F923F92CF93C9
:1002A000DF9300D01F92CDB7DEB79A83898380E8B1
:1002B0008B836FDFE981FA81E930F10508F066C1CF
:1002C000EA5BFF4FCEC381E090E09A838983C4C18B
:1002D00082E090E09A838983BCC1883009F0B9C17B
:1002E0007AC140910101413021F484E090E09A8389
:1002F000898346956091000170E06095709582E079
:1003000090E0FC01EE5AFE4F2081242391F0FC0185
:10031000EC59FE4F208130E026233723232B49F46C
:10032000FC01EE5AFE4F1082FC01EC59FE4F108288
:100330004AC101968231910521F72DC190910101A9
:100340008B81981304C083E090E09A838983CE0167
:1003500001961C01CADE1FC1609100016F3771F464
:1003600080910101813029F086E090E09A838983B1
:100370000DC087E090E09A83898308C080910101D5
:10038000813021F487E090E09A83898340910101D4
:10039000469582E090E0A62FB0E0A095B095FC01D4
:1003A000EE5AFE4F20812423E9F0FC01EC59FE4F68
:1003B000208130E02A233B23232BA1F46F3729F43B
:1003C00028E030E03A83298304C027E030E03A8314
:1003D0002983FC01EE5AFE4F1082FC01EC59FE4FBE
:1003E0001082D9C0019682319105C9F670E06095FE
:1003F0007095660F771F82E090E0FC01EE5AFE4F89
:100400002081242391F0FC01EC59FE4F208130E043
:1004100026233723232B49F4FC01EE5AFE4F10828A
:10042000FC01EC59FE4F1082FEC00196823191050D
:1004300021F7B1C040910101413071F48091000178
:100440008E3F29F487E090E09A8389830DC088E08D
:1004500090E09A83898308C0809100018E3F21F447
:1004600085E090E09A838983469550910001652F3D
:1004700070E06095709582E090E0FC01EE5AFE4FCE
:1004800020812423E9F0FC01EC59FE4F208130E06B
:1004900026233723232BA1F45E3F29F427E030E005
:1004A0003A83298304C028E030E03A832983FC01A1
:1004B000EE5AFE4F1082FC01EC59FE4F10826BC0C9
:1004C000019682319105C9F6352F3695306882E064
:1004D00090E0FC01EE5AFE4F2081242389F0FC01BC
:1004E000EC59FE4F208150812323251309C0FC01C4
:1004F000EE5AFE4F1082FC01EC59FE4F108279C07B
:1005000001968231910529F746C0909101018B81B6
:10051000981749F0809100018F3791F488E090E0BE
:100520009A8389830DC0809100018F3729F486E07A
:1005300090E09A83898304C085E090E09A83898360
:10054000CE0101961C01D1DD26C0809100018E3FB5
:1005500079F4909101018B81981729F087E090E060
:100560009A8389830EC085E090E09A83898309C0CD
:10057000909101018B81981304C086E090E09A83EA
:100580008983CE0101961C01B0DD05C081E090E0B9
:100590009A83898361C089819A81FC013197E8300F
:1005A000F10508F04DC0E15BFF4F5BC220E42093F2
:1005B00001012BEF2093000143C0209101012695FA
:1005C000209301013DC080910101880F80930101BA
:1005D00084E090E035C0809101018695809301010F
:1005E00080910001880F81608093000185E090E098
:1005F00027C080910101880F809301018091000143
:10060000880F81608093000187E090E019C02091FD
:100610000101269520930101209100012695206873
:10062000209300010DC080910101880F809301018A
:1006300080910001869580688093000188E090E0B9
:100640002091010120935301209100012093650125
:1006500006C089819A81F4CF89819A81A7CF0F90B2
:100660000F900F90DF91CF913F902F900895EF92D0
:10067000FF920F931F93CF93DF93EC018ADDC2307B
:10068000D10539F0C330D10509F462C0219729F4AE
:100690005AC0883009F05CC059C028EF3FEF82E0B3
:1006A00090E06894EE24E1F802E110E0CFEFD0E0B2
:1006B000AFE7B0E0FF24F3948A309105F4F4FC0135
:1006C000EE5AFE4FF082AC0142505109BD0102C00A
:1006D000759567954A95E2F744275527421B530BBA
:1006E000FE0102C0EE0FFF1F4A95E2F7AF01462B55
:1006F000FC01EC59FE4F40831CC028303105C8F482
:10070000FC01EE5AFE4FE082A801481B590BBE01C6
:1007100002C0660F771F4A95E2F7AD01022E02C0B4
:10072000559547950A94E2F7462BFC01EC59FE4F8C
:10073000408301962F5F3F4F8231910509F0BCCF76
:10074000C1E0D0E005C0C2E0D0E002C0C3E0D0E02C
:10075000CE01DF91CF911F910F91FF90EF900895FF
:10076000609305017093060180930701909308013F
:1007700060931C0170931D0180931E0190931F01D3
:1007800008958BE0809381008DE790E0909389003D
:100790008093880082E080936F0010928500109211
:1007A00084008091050190910601A0910701B0910C
:1007B000080180931C0190931D01A0931E01B0932A
:1007C0001F018FB780688FBF0895181619065CF057
:1007D0000895000021503109E1F74F5F5F4F841702
:1007E000950719F4089540E050E027E033E0F1CF99
:1007F00046988BB9479A0000479882E090E0E5CF91
:10080000089581E0F5CF0895813118F48158F0CF33
:1008100008958155EDCF089584E690E0D6DF88E312
:10082000E7DF86E0E5DF8FE0E3DF81E0E1DF8AE01C
:1008300090E0CBCF0895469A8BB9479A000047982D
:1008400081E090E0C2CF08950F931F93CF93DF9381
:10085000182FEB01D6DF8881882351F001E0010FCA
:10086000812FD2DF8991E7DF102F88818111F6CFA8
:10087000DF91CF911F910F910895EF92FF920F9307
:100880001F93CF93DF93C1E2D1E00F2EF1E5EF2E5E
:10089000F1E0FF2EF02D8E014E815F816885798514
:1008A0008A819B81AC81BD81481759076A077B0704
:1008B00058F0EA85FB858881998109959983888319
:1008C0001E821F8218861986F80186819781A0856D
:1008D000B1850196A11DB11D86839783A087B1873D
:1008E0002C96CE15DF05B9F681E080932001DF91CB
:1008F000CF911F910F91FF90EF9008951F920F924B
:100900000FB60F9211240BB60F922F933F934F9374
:100910005F936F937F938F939F93AF93BF93EF9367
:10092000FF9380911C0190911D01A0911E01B09137
:100930001F010197A109B10980931C0190931D012A
:10094000A0931E01B0931F01892B8A2B8B2B89F456
:1009500094DF8091050190910601A0910701B0916B
:10096000080180931C0190931D01A0931E01B09378
:100970001F01FF91EF91BF91AF919F918F917F9157
:100980006F915F914F913F912F910F900BBE0F9000
:100990000FBE0F901F9018958FEF81B912B884B9D0
:1009A00015B89BEF97B994E098B98AB91BB8E1E202
:1009B000F1E01182108282E390E0A0E0B0E0828357
:1009C0009383A483B58386839783A087B18726EE1C
:1009D00030E0338722871586148644EF51E060E0CB
:1009E00070E046875787608B718B428B538B648B8B
:1009F000758B2DE431E0378B268B118E108E828F14
:100A0000938FA48FB58F868F978FA0A3B1A387E311
:100A100093E093A382A315A214A281E090E0A0E04A
:100A2000B0E086A397A3A0A7B1A782A793A7A4A786
:100A3000B5A78DE990E097A786A761E070E080E018
:100A400090E08EDE9EDEE8DE81E0DEDE69E071E0D1
:100A500081E0FADE809120018823E1F310922001E9
:100A6000F9CFEE0FFF1F0024001C0BBE0790F6917C
:080A7000E02D0994F894FFCF7A
:100A7800FB40F8800201000000476F20746F20736C
:0A0A88006C656570206E6F772E001C
:00000001FF
