S02200004353313230425F46696E616C5F50726F6A6563745F50617274322E73726563F0
S11300006BC0000088C0000086C0000084C00000EF
S113001082C0000080C000007EC000007CC00000E0
S11300207AC0000078C0000076C0000074C00000F0
S113003072C000000C94F5086EC000006CC0000093
S11300406AC0000068C0000066C0000064C0000010
S113005062C0000060C000005EC000005CC0000020
S11300605AC0000058C0000056C0000054C0000030
S113007052C0000050C000004EC000004CC0000040
S11300804AC0000048C0000046C00000700175016D
S11300907A018D01AC01B503B503CD017A022C03BD
S11300A06C03C503CC0310041004D303D903DF038A
S11300B0F903ED030504B305DF0539054C053605E1
S11300C036059905940697069C067707A1064C0702
S11300D09106EC061007280711241FBECFEFD0E4C9
S11300E0DEBFCDBF11E0A0E0B1E0EAEBF3E100E058
S11300F00BBF02C007900D92AA37B107D9F722E0CF
S1130100AAE7B1E001C01D92AB30B207E1F70E944B
S113011043090C94DB0974CF8A31910568F4FC011E
S1130120E952FE4F1082FC01EF50FE4F1082809185
S113013088018F5F8093880108952F923F92EF92F8
S1130140FF920F931F93CF93DF93809112018695B3
S1130150909103018913A2C000910401A02FB0E083
S113016020E030E010E0E1EFF1E00F2EF7E0EF2EB9
S1130170F12CF02DAD01022E02C0559547950A943D
S1130180E2F7808190E0022E02C0959587950A944B
S1130190E2F7782F7170642F617040FF04C0711111
S11301A03BC01F5F3DC0611137C07130A9F580812C
S11301B0A90190E0B9016F5F7F4F02C095958795C3
S11301C06A95E2F780FD12C0E1018881998109975F
S11301D009F05CC080910F01081303C0F982E88222
S11301E005C088E090E09983888358C0808190E0BE
S11301F04150510902C0959587954A95E2F780FDD3
S11302000FC0E101888199810A9709F03FC087E016
S113021090E09983888342C0842B952B80FF06C08D
S11302202F5F3F4F2830310509F0A4CF111110C0C2
S113023080910F01081306C087E090E0F1019183DB
S113024080832CC088E090E0E1019983888326C0F4
S1130250113091F4F101808191818A30910529F462
S113026088E090E09183808319C00997B9F487E00E
S113027090E09183808312C0123031F487E090E0E3
S1130280F101918380830AC0183041F083E090E04B
S1130290E1019983888381E080938401DF91CF9188
S11302A01F910F91FF90EF903F902F9008952F9200
S11302B03F92BF92CF92DF92EF92FF920F931F93E0
S11302C0CF93DF9300D0CDB7DEB79A8389838B3089
S11302D0910508F04AC2FC01EA5BFF4F0C94D20975
S11302E081E090E09A838983A7C282E090E09A83B8
S11302F08983A5C280918701813009F0A0C28091D1
S1130300860181119CC280918401811198C28091DF
S11303108301882309F453C292C280918701811119
S113032096C280918601811184C2809184018111D9
S113033089C280918301813009F084C282E090E017
S11303409A8389837CC280918301811172C282E085
S113035090E09A83898373C280918701813099F4F4
S11303608091860181110FC08091840181110BC09D
S113037080918301811107C080910501909106014C
S11303809A838983F7C180918501813009F051C234
S113039081E090E09A8389834FC280918701811123
S11303A017C080918601813099F480918401811174
S11303B00FC08091830181110BC087E090E090937E
S11303C006018093050184E090E09A83898331C219
S11303D080918501813029F481E090E09A838983BA
S11303E020C09091040180911001981310C0909145
S11303F0030180911101981305C089E090E09A836C
S113040089830FC088E090E09A8389830AC0909121
S1130410030180911101981304C089E090E09A834C
S11304208983A09103014A2F4695B09104016B2F53
S113043070E06095709582E090E0FC01E952FE4F17
S113044020812423C1F0FC01EF50FE4F208130E0D5
S113045026233723232B79F420911001B21305C0EE
S11304602AE030E03A83298304C029E030E03A836B
S1130470298352DE7FC101968A319105F1F63091CC
S113048011015091100109811A81660F771F82E0D2
S113049090E06894EE24E3F8F12C0F2EFAE0CF2ECE
S11304A0F02DD12CA31303C0B51303C017C0B51787
S11304B0C1F0FC01E952FE4F20812423A1F0FC018C
S11304C0EF50FE4FE081F0E0E623F723EF2B59F4E1
S11304D02AE030E03A8329831FDE4CC10C2D1D2D08
S11304E002C00E2D1F2D01968A319105D9F609837C
S11304F01A8340C180918701811117C080918601C0
S1130500813099F48091840181110FC0809183011D
S113051081110BC088E090E090930601809305015F
S113052084E090E09A83898384C18091850181303D
S113053029F481E090E09A83898320C0909104019A
S113054080910F01981310C09091030180911101C3
S1130550981305C089E090E09A8389830FC087E0EF
S113056090E09A8389830AC09091030180911101DC
S1130570981304C08AE090E09A838983A0910301D0
S11305804A2F469550910401652F70E0609570954F
S113059082E090E0FC01E952FE4F20812423C1F067
S11305A0FC01EF50FE4F208130E026233723232B1C
S11305B079F420910F01521305C029E030E03A8309
S11305C0298304C02AE030E03A832983A5DDD2C020
S11305D001968A319105F1F66091110170910F0134
S11305E0F980BA81052F0695006810E000951095F2
S11305F082E090E00F2EF7E0DF2EF02DE12C0F2E9D
S1130600F9E0BF2EF02DC12CA61303C0571303C06D
S113061017C05717C1F0FC01E952FE4F2081242373
S1130620A1F0FC01EF50FE4F208130E02023312364
S1130630232B59F429E030E03A8329836DDD9AC0F5
S1130640FB2CBC2D02C0FD2CBE2D01968A319105D8
S1130650D9F6F982BA838EC080918701811117C0BF
S113066080918601813099F48091840181110FC0B9
S11306708091830181110BC089E090E09093060181
S11306808093050184E090E09A838983D2C090919D
S1130690030180911201981759F0909104018091FF
S11306A01001981314C08AE090E09A8389830FC0E4
S11306B09091040180911001981305C088E090E0A6
S11306C09A83898304C087E090E09A838983CE016A
S11306D001961C0132DD4EC080918701811117C043
S11306E080918601813099F48091840181110FC039
S11306F08091830181110BC08AE090E09093060100
S11307008093050184E090E09A83898392C080916C
S11307108501813029F481E090E09A83898320C0A7
S11307209091030180911201981310C090910401DB
S113073080910F01981305C087E090E09A83898324
S11307400FC088E090E09A8389830AC090910401E5
S113075080910F01981304C089E090E09A83898303
S1130760CE0101961C01E9DC05C081E090E09A838A
S1130770898362C089819A81FC013197EA30F1054D
S113078008F04EC0EF5AFF4F0DC620E4209303013A
S11307902BEF2093040144C020E4209303012BEFAA
S11307A0209304013DC02091030126952093030169
S11307B037C020910301220F2093030131C080919F
S11307C0030186958093030180910401880F816061
S11307D08093040187E090E023C020910301220F5D
S11307E02093030120910401220F2160209304012E
S11307F017C0209103012695209303012091040141
S113080026952068209304010BC020910301220F38
S1130810209303012091040126952068209304016C
S1130820209103012093D801209104012093F20127
S113083011C089819A81F4CF89819A81A6CF898157
S11308409A81AACF80918401813099F77CCD8981E6
S11308509A81E6CF0F900F90DF91CF911F910F9166
S1130860FF90EF90DF90CF90BF903F902F9008952E
S1130870AF92BF92DF92EF92FF920F931F93CF93A9
S1130880DF938230910539F08330910509F48AC0F1
S1130890019769F487C020918501213009F084C053
S11308A040EF5FEF28EF3FEF82E090E006C040EFBB
S11308B05FEF28EF3FEF82E090E0FF24F394CFE76F
S11308C0D0E0AFEFB0E06894DD24D2F80AE110E0A4
S11308D06894EE24E1F88A309105F4F4FC01E952BD
S11308E0FE4FF082BC0162507109FE0102C0F59511
S11308F0E7956A95E2F766277727621B730B5D011C
S113090002C0AA0CBB1C6A95E2F7B5016E2BFC0170
S1130910EF50FE4F60833AC028303105D8F4FC0113
S1130920E952FE4FE08266277727641B750BFD01B1
S113093002C0EE0FFF1F6A95E2F7BE01022E02C04D
S1130940759567950A94E2F76E2BFC01EF50FE4F04
S113095060831CC048305105C8F4FC01E952FE4FC5
S1130960D082B801681B790BFD0102C0EE0FFF1F96
S11309706A95E2F7BE01042E02C0759567950A9444
S1130980E2F76E2BFC01EF50FE4F608301962F5F60
S11309903F4F4F5F5F4F8A31910509F09CCF81E053
S11309A090E002C082E090E0DF91CF911F910F911F
S11309B0FF90EF90DF90BF90AF900895019702975A
S11309C030F5E0918101F0918201E952FE4F80817E
S11309D082B9E0918101F0918201EF50FE4F808154
S11309E085B980918101909182018931910539F411
S11309F0109282011092810182E090E008950196A4
S1130A00909382018093810182E090E0089581E0D7
S1130A1090E00895419A419840E050E080E026B18A
S1130A2030E02095309522FB662760F970E09B0149
S1130A30042E02C0220F331F0A94E2F7822B409A3D
S1130A4040984F5F5F4F4830510549F708951F9311
S1130A50CF93DF93EC01DEDF182FFE013197E730EF
S1130A60F10508F077C0E55AFF4F9CC4C7E0D0E019
S1130A70B1C080918701813009F0ACC080918601BA
S1130A808111A8C0809184018111A4C08091830147
S1130A90882309F485C09EC080910C01181312C0EC
S1130AA080918701813021F58091860181113CC0BC
S1130AB080918401811189C080918301882309F484
S1130AC074C083C080910B01181312C080918701F8
S1130AD0813071F480918601811126C08091840156
S1130AE0811122C080918301882309F463C01CC052
S1130AF080918701811118C080918601813051F461
S1130B0080918401811110C080918301882309F4AC
S1130B1059C00AC0811108C080918401813019F143
S1130B20809183018130F9F0809185018130C1F594
S1130B3011C070DF8823A1F180910901823020F473
S1130B408F5F8093090146C0103479F1103809F0A1
S1130B5041C030C080E88093080188EF809307018A
S1130B60C1E0D0E037C080E88093D70188EF80935C
S1130B70F101C3E0D0E02EC0880F816080930701AB
S1130B80C5E0D0E027C08695806880930701C6E061
S1130B90D0E020C0C5E0D0E01DC0C6E0D0E01AC05F
S1130BA010920901C4E0D0E015C0809107018F3193
S1130BB019F7F0CF80910701883F29F7EECFC3E002
S1130BC0D0E008C0C3E0D0E005C080910B01181349
S1130BD0ABCF84CF809108018093D7018091070126
S1130BE08093F101CE01DF91CF911F91089560931D
S1130BF0130170931401809315019093160160936F
S1130C00890170938A0180938B0190938C010895DC
S1130C108BE0809381008DE790E09093890080932E
S1130C20880082E080936F00109285001092840007
S1130C308091130190911401A0911501B0911601B6
S1130C408093890190938A01A0938B01B0938C01C6
S1130C508FB780688FBF0895181619065CF0089541
S1130C60000021503109E1F74F5F5F4F841795076A
S1130C7019F4089540E050E027E033E0F1CF4698BE
S1130C808BB9479A0000479882E090E0E5CF089539
S1130C9081E0F5CF0895813118F48158F0CF08959B
S1130CA08155EDCF089584E690E0D6DF88E3E7DF51
S1130CB086E0E5DF8FE0E3DF81E0E1DF8AE090E0DA
S1130CC0CBCF0895469A8BB9479A0000479881E0A4
S1130CD090E0C2CF08950F931F93CF93DF93182F03
S1130CE0EB01D6DF8881882351F001E0010F812FC9
S1130CF0D2DF8991E7DF102F88818111F6CFDF9150
S1130D00CF911F910F910895CF93DF93EC0182DE71
S1130D10FE013197EA30F10508F0BEC0EE59FF4FED
S1130D2041C3C3E0D0E00EC110928501E9C09091A7
S1130D300D018913E5C0DEC090910D018913BDC07A
S1130D4001C190910D01891791F080918701813043
S1130D5099F5809183018111EAC080918601811106
S1130D60E6C080918401882309F4ECC0E0C090912E
S1130D700E01891709F4ADC0809187018130E1F437
S1130D8080918301811118C080918601811105C071
S1130D9080918401882309F4B0C080918601811177
S1130DA0CCC080918401813009F0CCC080910A01CB
S1130DB0815080930A01AFC080918401813031F465
S1130DC080910A01815080930A01A5C0809183011A
S1130DD0813009F0B7C094C090910D01891310C0FF
S1130DE080910A01882381F081E080938701109229
S1130DF086011092840110928301C3E0D0E0A2C066
S1130E0080910A01811187C0109287011092860196
S1130E101092840181E080938301C9E0D0E092C004
S1130E2080917C0190917D01883B2BE0920750F0EA
S1130E301092880183E080930A0110927D01109240
S1130E407C0147C0019690937D0180937C017AC018
S1130E5090910D01891304C090910E01891761F0DE
S1130E6080917A0190917B018D32914028F010920B
S1130E707B0110927A0110C0C0917A01D0917B015C
S1130E80209721F467E171E081E025DF2196D0937A
S1130E907B01C0937A011DC01092870110928601D4
S1130EA010928401109283011092880110927D01A6
S1130EB010927C01C1E0D0E045C081E080938701BD
S1130EC0109286011092840110928301C4E0D0E054
S1130ED039C0109287011092860181E080938501C8
S1130EE01092840110928801CAE0D0E02BC0C5E0C2
S1130EF0D0E028C0C3E0D0E025C0C6E0D0E022C0E6
S1130F00109287011092860110928401109283013D
S1130F10C2E0D0E017C0109287011092860181E0F0
S1130F208093840110928301C8E0D0E00BC08091CB
S1130F308301882309F431CF3FCF8091840181302C
S1130F4009F43ECFCE01DF91CF910895CF93DF9383
S1130F50EC018730910544F405970CF0EDC021971E
S1130F60239708F4E9C05DC0079709F05AC080913F
S1130F70870181110EC08091860181111AC0809170
S1130F8084018111DFC080918301882309F44DC05D
S1130F90D9C08130C1F580918601811134C080911E
S1130FA084018111D7C080918301882309F452C040
S1130FB0D1C080918601813051F4809184018111E6
S1130FC0C4C080918301882309F4B9C0BEC08111D3
S1130FD01AC080918401813061F480918301882357
S1130FE009F47EC006C080918301882309F478C087
S1130FF00AC080918401882309F483C0809183010D
S1131000813031F47EC080918301813009F479C04C
S113101080918501813029F068E271E081E05BDE36
S11310209FC036DEC1E0D0E09BC080910101909169
S11310300201029731F081E02EDE6EE271E081E080
S11310404ADE82E090E09093020180930101C2E0C5
S1131050D0E086C080918801882309F438C080914B
S113106000018F5F80930001809180018A3039F400
S113107080917F018F5F80937F0110928001809126
S11310807E018A3039F4809180018F5F80938001E2
S113109010927E01C0917E0181E08C0F80937E01CD
S11310A081E0F9DD6AE471E081E015DE80917F0181
S11310B0805D08DE80918001805D04DE81E38C0F19
S11310C001DE80E3FFDD80E3E6DD1092880183E04A
S11310D090E09093020180930101C3E0D0E040C00E
S11310E061E571E081E0F7DD80910A01805DEADD70
S11310F085E090E09093020180930101C5E0D0E087
S11311002FC081E0C8DD6DE571E081E0E4DD809110
S11311100A01805DD7DD10927F0110928001109248
S11311207E011092000186E090E09093020180938A
S11311300101C6E0D0E014C0C7E0D0E011C0C4E0B3
S1131140D0E00EC08091860142CF8091860181114A
S11311505ACF4FCF80918401813009F054CF43CFCF
S1131160CE01DF91CF910895EF92FF920F931F93D9
S1131170CF93DF93CEE8D1E00F2EF6EDEF2EF1E022
S1131180FF2EF02D8E014E815F81688579858A81DD
S11311909B81AC81BD81481759076A077B0758F0CA
S11311A0EA85FB85888199810995998388831E82C4
S11311B01F8218861986F80186819781A085B185DA
S11311C00196A11DB11D86839783A087B1872C96B4
S11311D0CE15DF05B9F681E080938D01DF91CF91C3
S11311E01F910F91FF90EF9008951F920F920FB6E9
S11311F00F9211240BB60F922F933F934F935F934B
S11312006F937F938F939F93AF93BF93EF93FF93CA
S11312108091890190918A01A0918B01B0918C01F8
S11312200197A109B1098093890190938A01A09340
S11312308B01B0938C01892B8A2B8B2B89F494DF3F
S11312408091130190911401A0911501B0911601A0
S11312508093890190938A01A0938B01B0938C01B0
S1131260FF91EF91BF91AF919F918F917F916F917A
S11312705F914F913F912F910F900BBE0F900FBE36
S11312800F901F9018958FEF81B912B884B915B8D3
S11312909BEF97B994E098B98AB91BB8EEE8F1E0EE
S11312A0118210828EE190E0A0E0B0E0828393830B
S11312B0A483B58386839783A087B18787E295E06B
S11312C0938782871586148648EC50E060E070E0CE
S11312D046875787608B718B428B538B648B758BDE
S11312E087E591E0978B868B118E108E82E390E0D8
S11312F0A0E0B0E0828F938FA48FB58F868F978FF5
S1131300A0A3B1A388E394E093A382A315A214A29B
S113131081E090E0A0E0B0E086A397A3A0A7B1A7E6
S113132082A793A7A4A7B5A72EED34E037A726A7D5
S113133011AA10AA42AB53AB64AB75AB46AB57AB27
S113134060AF71AF26EA37E033AF22AF15AE14AE0B
S11313508093CC019093CD01A093CE01B093CF01A3
S11313608093D0019093D101A093D201B093D30183
S113137084E896E09093D5018093D40161E070E015
S113138080E090E034DC44DC8EDC81E084DC6EE6DA
S113139071E081E0A0DC80918D018823E1F310925B
S11313A08D01F9CFEE0FFF1F0024001C0BBE079028
S10D13B0F691E02D0994F894FFCFA4
S11313BA01090040FB0700F880020380400804FE8C
S11313CA7F0180010000004C4F4144494E472E2EB4
S11313DA2E202020202020004552524F52004252F3
S11313EA49434B20425245414B45522120205052F9
S11313FA4553532053544152540053434F52453A90
S113140A005455524E53204C4546543A0047414DD8
S113141A45204F56455221202020202020004C4FA1
S10D142A4144494E472E2E2E0000C7
S9030000FC
