:1000000045C0000060C000005EC000005CC0000091
:100010005AC0000058C0000056C0000054C0000084
:1000200052C0000050C000004EC000004CC0000094
:100030004AC000003DC2000046C0000044C00000AD
:1000400042C0000040C000003EC000003CC00000B4
:100050003AC0000038C0000036C0000034C00000C4
:1000600032C0000030C000002EC000002CC00000D4
:100070002AC0000028C0000026C0000024C00000E4
:1000800022C0000020C000001EC0000011241FBEBE
:10009000CFEFD0E4DEBFCDBF11E0A0E0B1E0ECE0F7
:1000A000F6E000E00BBF02C007900D92AA30B10746
:1000B000D9F721E0AAE0B1E001C01D92A934B2074E
:1000C000E1F744D2A1C29CCF82309105A1F01CF48B
:1000D000019731F026C083309105C1F0049709F5EE
:1000E0008091480180930B018091440180930A0123
:1000F00022E030E018C08091470180930B0180918D
:10010000120180930A0123E030E00DC08091430189
:1001100080930B018091460180930A0124E030E036
:1001200002C021E030E090910B0192B990910A0158
:1001300095B9C9010895419A419840E050E080E0A6
:1001400026B130E02095309522FB662760F970E0FB
:100150009B01042E02C0220F331F0A94E2F7822B68
:10016000409A40984F5F5F4F4830510549F70895D6
:10017000CF93DF93EC01DFDFC330D105A1F03CF476
:10018000C130D10569F1C230D10549F020C0C63077
:10019000D1050CF446C0C630D10551F018C08830E6
:1001A00009F041C01DC0803401F18038C9F428C075
:1001B0008823B1F090910501923020F49F5F9093D5
:1001C000050131C0803489F0803869F519C080E8B4
:1001D0008093040188EF80930301C1E0D0E023C045
:1001E00010920501C3E0D0E01EC0809103018F3161
:1001F00091F0880F816080930301C4E0D0E013C0C8
:1002000080910301883F51F08695806880930301B7
:10021000C5E0D0E008C0C4E0D0E005C0C5E0D0E053
:1002200002C0C6E0D0E08091040180934801809133
:10023000030180934401CE01DF91CF910895CF93C4
:10024000DF93EC0178DFC530D105A1F044F4C13073
:10025000D10509F480C0C230D10541F03BC0C730A0
:10026000D10501F18CF0289739F134C0883009F0BC
:1002700074C039C0809102018F3709F450C0809159
:100280000101813081F53DC0809102018E3F29F44A
:1002900080910101813039F534C0809101018130B4
:1002A000F1F54BC0809102018F3709F446C080916F
:1002B0000101803431F517C0809102018E3F29F48D
:1002C000809101018034E9F40EC0809101018034F5
:1002D000A1F525C080E4809301018BEF809302019A
:1002E000C1E0D0E03AC08091010186958093010180
:1002F00080910201880F816080930201C5E0D0E007
:100300002CC080910101880F80930101809102012E
:10031000880F816080930201C7E0D0E01EC0809109
:100320000101869580930101809102018695806884
:1003300080930201C6E0D0E010C080910101880FD7
:10034000809301018091020186958068809302016B
:10035000C8E0D0E002C0C2E0D0E08091010180930B
:1003600047018091020180931201CE01DF91CF916C
:100370000895CF93DF93EC01DEDEC230D10531F07A
:10038000C330D10599F0219721F40BC0883071F466
:100390000BC087E08093000110920C01C1E0D0E017
:1003A00005C0C2E0D0E002C0C3E0D0E0809100010F
:1003B0008093430180910C0180934601CE01DF912F
:1003C000CF9108956093060170930701809308010F
:1003D0009093090160930D0170930E0180930F01BA
:1003E0009093100108958BE0809381008DE790E059
:1003F000909389008093880082E080936F00109230
:100400008500109284008091060190910701A091CF
:100410000801B091090180930D0190930E01A09302
:100420000F01B09310018FB780688FBF0895EF92CE
:10043000FF920F931F93CF93DF93C3E1D1E00F2E71
:10044000F3E4EF2EF1E0FF2EF02D8E014E815F815F
:10045000688579858A819B81AC81BD814817590760
:100460006A077B0758F0EA85FB85888199810995A1
:10047000998388831E821F8218861986F8018681D7
:100480009781A085B1850596A11DB11D86839783AF
:10049000A087B1872C96CE15DF05B9F681E0809351
:1004A0001101DF91CF911F910F91FF90EF9008956F
:1004B0001F920F920FB60F9211240BB60F922F932B
:1004C0003F934F935F936F937F938F939F93AF93DC
:1004D000BF93EF93FF9380910D0190910E01A09136
:1004E0000F01B09110010197A109B10980930D018D
:1004F00090930E01A0930F01B0931001892B8A2BCA
:100500008B2B89F494DF8091060190910701A091D3
:100510000801B091090180930D0190930E01A09301
:100520000F01B0931001FF91EF91BF91AF919F9197
:100530008F917F916F915F914F913F912F910F908C
:100540000BBE0F900FBE0F901F9018958FEF84B9C0
:1005500015B881B912B883E087B984E088B9E3E1BE
:10056000F1E021E030E03183208382E390E0A0E0FD
:10057000B0E082839383A483B58386839783A08727
:10058000B18788EB90E0938782873587248786E957
:1005900090E0A0E0B0E086879787A08BB18B828B3C
:1005A000938BA48BB58B8FE191E0978B868B318FEA
:1005B000208F85E090E0A0E0B0E0828F938FA48F41
:1005C000B58F868F978FA0A3B1A344E650E053A3C5
:1005D00042A335A324A386A397A3A0A7B1A782A76C
:1005E00093A7A4A7B5A789EB91E097A786A765E095
:1005F00070E080E090E0E6DEF6DE80911101882375
:0C060000E1F310921101F9CFF894FFCF44
:0A060C000740FBF880020100000027
:00000001FF
