:1000000075C0000092C0000090C000008EC00000CB
:100010008CC000008AC0000088C0000086C00000BC
:1000200084C0000082C0000080C000007EC00000CC
:100030007CC000000C945A0A78C0000076C0000012
:1000400074C0000072C0000070C000006EC00000EC
:100050006CC000006AC0000068C0000066C00000FC
:1000600064C0000062C0000060C000005EC000000C
:100070005CC000005AC0000058C0000056C000001C
:1000800054C0000052C0000050C000007D01820139
:1000900087019A01B901CA03CA03DA018A0241033E
:1000A0008103DA03E10325042504E803EE03F403E6
:1000B0000E0402041A04CC05EA054405570541055F
:1000C0004105A4059C069F06A4064308AD06390712
:1000D0003F074407680708079907000A000A3B0919
:1000E0004109000A000A000A000AB60811241FBECE
:1000F000CFEFD0E4DEBFCDBF11E0A0E0B1E0E6EE8F
:10010000F6E100E00BBF02C007900D92A43CB107DE
:10011000D9F722E0A4ECB1E001C01D92A634B207E9
:10012000E1F70E94A80A0C94710B6ACF8231910505
:1001300068F4FC01EE5DFD4F1082FC01EC5CFD4FAC
:1001400010828091D2018F5F8093D20108952F9207
:100150003F92EF92FF920F931F93CF93DF93809183
:1001600015018695909102018913A2C0E0900301C8
:100170006E2D70E080E090E0F12CE4E3F2E0A7E087
:10018000B0E0AB01082E02C0559547950A94E2F7FE
:100190003081232F30E0E901082E02C0D595C795A4
:1001A0000A94E2F70C2F0170142F117040FF04C065
:1001B000011139C0F3943CC0111135C0013099F5DB
:1001C000AC01EC01219602C035952795CA95E2F75E
:1001D00020FD13C0E101288139812930310509F062
:1001E0005FC020911201E21203C0B983A88305C049
:1001F00088E090E0998388835BC0208130E04150A3
:10020000510902C0359527954A95E2F720FD10C0A7
:10021000E101888199810A9709F042C087E090E066
:100220009983888345C09E01242B352B20FF05C070
:1002300001968830910509F0A4CFF11010C080918B
:100240001201E81206C087E090E0F10191838083FB
:100250002FC088E090E0E1019983888329C0D1E034
:10026000FD1212C0F101808191818A30910529F43B
:1002700088E090E0918380831BC00997C9F487E0F0
:1002800090E09183808314C0D2E0FD1206C087E025
:1002900090E0F101918380830BC0F8E0FF1641F0FC
:1002A00083E090E0E1019983888381E08093CE012F
:1002B000DF91CF911F910F91FF90EF903F902F9082
:1002C00008952F923F928F929F92AF92BF92CF92BA
:1002D000DF92EF92FF920F931F93CF93DF9300D0A3
:1002E000CDB7DEB79A8389838B30910508F052C26F
:1002F000FC01EA5BFF4F0C94400B81E090E09A8395
:100300008983AFC282E090E09A838983ADC28091F5
:10031000D101813009F0A8C28091D0018111A4C21D
:100320008091CE018111A0C28091CD01882309F472
:100330005BC29AC28091D10181119EC28091D0018D
:1003400081118CC28091CE01811191C28091CD0129
:10035000813009F08CC282E090E09A83898384C264
:100360008091CD0181117AC282E090E09A838983E5
:100370007BC28091D101813099F48091D0018111AB
:100380000FC08091CE0181110BC08091CD018111F0
:1003900007C080910401909105019A838983FFC170
:1003A0008091CF01813009F059C281E090E09A83B9
:1003B000898357C28091D101811117C08091D001EA
:1003C000813099F48091CE0181110FC08091CD01CF
:1003D00081110BC087E090E09093050180930401A8
:1003E00084E090E09A83898339C28091CF01813083
:1003F00029F481E090E09A83898320C090910301E1
:1004000080911301981310C0909102018091140102
:10041000981305C089E090E09A8389830FC088E033
:1004200090E09A8389830AC090910201809114011F
:10043000981304C089E090E09A83898310910201A7
:10044000412F469500910301602F70E060957095F3
:10045000A4E2B2E0E6E3F2E022E030E09D919423F2
:10046000B1F0808190E086239723892B81F48091DD
:100470001301081305C08AE090E09A83898304C0C1
:1004800089E090E09A838983C90150DE88C12F5F9B
:100490003F4F31962231310509F7309114015091C7
:1004A0001301C980DA80660F771FE2E2F2E0A4E36D
:1004B000B2E082E090E06894AA24A3F8B12C0F2E59
:1004C000FAE08F2EF02D912C131303C0051303C0F7
:1004D00013C00517A1F02281242399F01296EC9005
:1004E0001297F12CE622F722EF2859F42AE030E0A7
:1004F0003A8329831BDE53C1C82CD92C02C0CA2CD5
:10050000DB2C01963196119682319105E9F6C9826C
:10051000DA8245C18091D101811117C08091D0014B
:10052000813099F48091CE0181110FC08091CD016D
:1005300081110BC088E090E0909305018093040145
:1005400084E090E09A83898389C18091CF018130D2
:1005500029F481E090E09A83898320C0909103017F
:1005600080911201981310C09091020180911401A2
:10057000981305C089E090E09A8389830FC087E0D3
:1005800090E09A8389830AC09091020180911401BE
:10059000981304C08AE090E09A8389831091020145
:1005A000412F469550910301652F70E0609570953D
:1005B000A4E2B2E0E6E3F2E022E030E09D91942391
:1005C000B1F0808190E086239723892B81F480917C
:1005D0001201581305C089E090E09A83898304C012
:1005E0008AE090E09A838983C901A0DDD8C02F5F9B
:1005F0003F4F31962231310509F730911401609156
:10060000120109817A81852F86958068E82EF12C68
:10061000E094F094E2E2F2E0A4E3B2E082E090E061
:100620000F2EF7E0AF2EF02DB12C0F2EF9E08F2E0C
:10063000F02D912C131303C0561303C014C056178A
:10064000A9F022812423A1F012962C911297C22E98
:10065000D12CCE20DF20CD2859F429E030E03A8398
:10066000298364DD9CC0082D792D02C00A2D7B2DC5
:1006700001963196119682319105E1F609837A83CC
:100680008EC08091D101811117C08091D00181303D
:1006900099F48091CE0181110FC08091CD0181111B
:1006A0000BC089E090E0909305018093040184E001
:1006B00090E09A838983D2C09091020180911501C4
:1006C000981759F09091030180911301981314C069
:1006D0008AE090E09A8389830FC090910301809112
:1006E0001301981305C088E090E09A83898304C0C1
:1006F00087E090E09A838983CE0101961C0127DD73
:100700004EC08091D101811117C08091D0018130FC
:1007100099F48091CE0181110FC08091CD0181119A
:100720000BC08AE090E0909305018093040184E07F
:1007300090E09A83898392C08091CF01813029F41F
:1007400081E090E09A83898320C09091020180919A
:100750001501981310C09091030180911201981314
:1007600005C087E090E09A8389830FC088E090E01D
:100770009A8389830AC09091030180911201981392
:1007800004C089E090E09A838983CE0101961C0120
:10079000DEDC05C081E090E09A83898362C08981B4
:1007A0009A81FC013197EA30F10508F04EC0EF5A0A
:1007B000FF4F66C720E4209302012BEF2093030133
:1007C00044C020E4209302012BEF209303013DC09D
:1007D0002091020126952093020137C02091020149
:1007E000220F2093020131C08091020186958093EF
:1007F000020180910301880F81608093030187E0EB
:1008000090E023C020910201220F20930201209149
:100810000301220F21602093030117C020910201E0
:1008200026952093020120910301269520682093AC
:1008300003010BC020910201220F2093020120919D
:100840000301269520682093030120910201209343
:100850002302209103012093350211C089819A81DE
:10086000F4CF89819A81A6CF89819A81AACF80917C
:10087000CE01813099F774CD89819A81E6CF0F90AE
:100880000F90DF91CF911F910F91FF90EF90DF902C
:10089000CF90BF90AF909F908F903F902F900895F2
:1008A0008F929F92BF92CF92DF92EF92FF920F931F
:1008B0001F93CF93DF938230910501F1833091052F
:1008C00009F479C0019709F476C0A4E2B2E0E6E346
:1008D000F2E020EF3FEF88EF9FEF6894BB24B2F87F
:1008E0006894EE24E4F8F12C0FEF10E0CFE7D0E0AD
:1008F0006894CC24C1F8DD24D39406C02091CF01A4
:10090000213009F05AC0E1CFAC01465F5F4F4A3059
:100910005105BCF4DC9242505109BE0102C07595EC
:1009200067954A95E2F744275527481B590B48011C
:1009300002C0880C991C4A95E2F7A401462B40831B
:100940002EC088309105A8F4CC9244275527421B2D
:10095000530BB80102C0660F771F4A95E2F7AE014C
:10096000082E02C0559547950A94E2F7462B40831E
:1009700016C02830310598F4BC92A701481B590BCA
:10098000B80102C0660F771F4A95E2F7AE01022E4A
:1009900002C0559547950A94E2F7462B408311967D
:1009A000319601962F5F3F4F8830910509F0ACCF0B
:1009B00081E090E002C082E090E0DF91CF911F9152
:1009C0000F91FF90EF90DF90CF90BF909F908F900E
:1009D00008950197029730F5E091CB01F091CC0199
:1009E000EE5DFD4F808182B9E091CB01F091CC01A9
:1009F000EC5CFD4F808185B98091CB019091CC0159
:100A00008131910539F41092CC011092CB0182E032
:100A100090E0089501969093CC018093CB0182E001
:100A200090E0089581E090E00895419A419840E077
:100A300050E080E026B130E02095309522FB66271B
:100A400060F970E09B01042E02C0220F331F0A944C
:100A5000E2F7822B409A40984F5F5F4F4830510534
:100A600049F708951F93CF93DF93EC01DEDF182F32
:100A7000FE013197E730F10508F077C0E55AFF4FE6
:100A8000FFC5C7E0D0E0B1C08091D101813009F04D
:100A9000ACC08091D0018111A8C08091CE0181119C
:100AA000A4C08091CD01882309F485C09EC08091A7
:100AB0000B01181312C08091D101813021F5809172
:100AC000D00181113CC08091CE01811189C08091FB
:100AD000CD01882309F474C083C080910A011813E2
:100AE00012C08091D101813071F48091D0018111C7
:100AF00026C08091CE01811122C08091CD01882332
:100B000009F463C01CC08091D101811118C080918B
:100B1000D001813051F48091CE01811110C08091BB
:100B2000CD01882309F459C00AC0811108C0809101
:100B3000CE018130A1F18091CD01813099F1809178
:100B4000CF018130C1F511C070DF8823A1F1809100
:100B50000801823020F48F5F8093080146C0103472
:100B600079F1103809F041C030C080E88093070166
:100B700088EF80930601C1E0D0E037C0880F816024
:100B800080930601C5E0D0E030C0869580688093F0
:100B90000601C6E0D0E029C0C3E0D0E026C0C3E033
:100BA000D0E023C0C3E0D0E020C0C5E0D0E01DC04D
:100BB000C6E0D0E01AC010920801C4E0D0E015C031
:100BC000809106018F31D1F6F0CF80910601883FE8
:100BD000E1F6EECFC3E0D0E008C0C3E0D0E005C04E
:100BE00080910A011813ABCF84CF809107018093C5
:100BF00022028091060180933402CE01DF91CF91D1
:100C00001F91089560931601709317018093180146
:100C1000909319016093D3017093D4018093D5010F
:100C20009093D60108958BE0809381008DE790E04A
:100C3000909389008093880082E080936F001092E7
:100C40008500109284008091160190911701A09167
:100C50001801B09119018093D3019093D401A0930E
:100C6000D501B093D6018FB780688FBF089518164D
:100C700019065CF00895000021503109E1F74F5F3B
:100C80005F4F8417950719F4089540E050E027E07E
:100C900033E0F1CF46988BB9479A0000479882E03D
:100CA00090E0E5CF089581E0F5CF0895813118F403
:100CB0008158F0CF08958155EDCF089584E690E0F6
:100CC000D6DF88E3E7DF86E0E5DF8FE0E3DF81E082
:100CD000E1DF8AE090E0CBCF0895469A8BB9479A3E
:100CE0000000479881E090E0C2CF08950F931F93D2
:100CF000CF93DF93182FEB01D6DF8881882351F043
:100D000001E0010F812FD2DF8991E7DF102F888169
:100D10008111F6CFDF91CF911F910F910895CF935D
:100D2000DF93EC0182DEFE013197EB30F10508F034
:100D300019C1EE59FF4FA4C41092CF012FC1909159
:100D40000E0189132BC1A2C190910E01282F2923D6
:100D500009F0BCC189133DC1B9C190910E01891739
:100D600009F478C12091D101213009F09DC1209171
:100D7000CD012111A5C12091D0012111A1C1209146
:100D8000CE01222309F46EC19BC19091D101913013
:100D9000E1F49091CD01911118C08091D0018111A1
:100DA00005C08091CE01882309F45AC18091D001F9
:100DB000811175C18091CE01813009F053C18091BC
:100DC000090181508093090158C19091CE01913061
:100DD00031F4809109018150809309014EC19091B5
:100DE000CD01913009F03EC142C18091D2018031E4
:100DF00009F013C18091C8019091C901892B09F0B4
:100E000048C16AE171E081E071DFCAE0D0E05EC113
:100E10008091C8019091C901883B9B40A8F06091E6
:100E2000D2018091D801861728F46093D8018EE210
:100E300090E049D41092D20183E08093090110928E
:100E4000C7011092C601E9C06091D2018091D8011A
:100E5000861728F46093D8018EE290E034D4809114
:100E6000C8019091C90101969093C9018093C8016E
:100E70002DC190910E01892309F4C3C027C190911F
:100E80000E018913BEC008C190910E01891310C0D4
:100E900080910901882381F081E08093D101109233
:100EA000D0011092CE011092CD01C3E0D0E00EC16E
:100EB00080910901811199C01092D1011092D00145
:100EC0001092CE0181E08093CD01C9E0D0E0FEC058
:100ED0008091C6019091C70188389341A8F0609134
:100EE000D2018091D801861728F46093D8018EE250
:100EF00090E0E9D31092D20183E08093090110922F
:100F0000C7011092C60189C06091D2018091D801B9
:100F1000861728F46093D8018EE290E0D4D38091B4
:100F2000C6019091C70101969093C7018093C601B5
:100F3000CDC0C091C401D091C501CD3281E0D807A8
:100F400028F01092C5011092C4010CC0209721F422
:100F500063E271E081E0CADE2196D093C501C093BF
:100F6000C4015BC01092D1011092D0011092CE0149
:100F70001092CD016091D2018091D801861728F49A
:100F80006093D8018EE290E09ED31092D20110922D
:100F9000C7011092C601C1E0D0E098C01092D10103
:100FA0001092D0011092CE011092CD01209111012A
:100FB00090911001922B20910F01922B891344C024
:100FC00060E08EE290E07FD31092D801C2E0D0E0E2
:100FD0007DC081E08093D1011092D0011092CE01AA
:100FE0001092CD01C4E0D0E071C01092D1011092F6
:100FF000D00181E08093CE011092CD01C8E0D0E015
:1010000065C01092D10181E08093D0011092CE0191
:101010001092CD01C7E0D0E059C01092D1011092DA
:10102000D00181E08093CF011092CE016091D20176
:101030008091D801861758F46093D8018EE290E031
:1010400042D3CBE0D0E042C0C2E0D0E03FC0CBE032
:10105000D0E03CC090910F01982B891396CEC5CE5D
:10106000C6E0D0E08091D201803181F5C3CE90916D
:10107000D201903109F092CFBDCE8091D201803162
:1010800009F0B3CFB7CEC5E0D0E020C0C3E0D0E0D8
:101090001DC0CAE0D0E01AC0C3E0D0E017C0809104
:1010A000CE018130F9F695CE20910F01922B891354
:1010B0008CCE9BCE9091CD01992309F477CE85CE2D
:1010C00020910F01922B8913F5CF8FCECE01DF91A6
:1010D000CF910895CF93DF93882399F090E0C0E0FB
:1010E000D0E020E0DA3020F02F5FC0E0D0E005C093
:1010F000CF5FCA3010F0DF5FC0E09F5F8913F2CF8F
:1011000003C0C0E0D0E020E080E3820FE6DD80E3B2
:101110008D0FE3DD80E38C0FE0DD80E3DEDDDF912A
:10112000CF910895C3DD80E0D8DD80E4B3DD80E0B9
:10113000D4DD8EE0D2DD88E1D0DD81E1CEDD88E155
:10114000CCDD8EE0CADD80E0C8DD80E0C6DD80E871
:10115000A1CD08951F93CF93DF9301978930910517
:1011600008F095C083599F4FFC018AC25EDC9091C4
:101170000C01891311C08091D10181110DC08091A2
:10118000D001811109C08091CE01811105C08091EB
:10119000CD01882309F424C148DC90910D01891305
:1011A00012C08091D10181112EC18091D001811195
:1011B0002AC08091CE0181110EC08091CD0188237B
:1011C00009F416C108C08091D10181111CC1809120
:1011D000D001811118C08091CE01811118C1809178
:1011E000CD01882309F4F4C012C18091D00181118E
:1011F00034C08091CE01811112C18091CD0188232C
:1012000009F475C00CC18091D001813051F48091F6
:10121000CE018111FFC08091CD01882309F4C8C09F
:10122000F9C081111AC08091CE01813061F48091A2
:10123000CD01882309F492C006C08091CD01882396
:1012400009F48CC00AC08091CE01882309F495C0AE
:101250008091CD01813031F490C08091CD018130F9
:1012600009F48BC08091CF01813089F064E371E093
:1012700081E03CDDC5C0D9DB90910C018913A8C089
:10128000AFC0D3DB90910D018913A2C0B1C00BDDBB
:1012900081E090E0CAC081E009DD6AE371E081E0AD
:1012A00025DD80E303DD82E090E0909301018093EF
:1012B0000001BBC066E571E081E018DD8091D801D6
:1012C00009DF80E3F3DC83E090E0909301018093F9
:1012D0000001ABC081E0EADC62E671E081E006DD9E
:1012E00084E090E090930101809300019EC0909172
:1012F000D2018091CA01981751F16AE971E081E049
:10130000F5DC8091D201E6DE80910901882371F03D
:10131000C0E0D0E01C2F1F5E812F04DF21961F5FED
:101320008091090190E0C817D907B4F380E3BEDCCF
:101330006091D2018091D801861728F46093D8017A
:101340008EE290E0AED18091D2018093CA0185E017
:1013500090E0909301018093000167C06EE771E017
:1013600081E0C4DC80910901805DB7DC87E090E01A
:10137000909301018093000158C06AE871E081E018
:10138000B5DC8091D201A6DE80E390DC6091D201D1
:101390008091D801861728F46093D8018EE290E0FE
:1013A00092D188E090E090930101809300013DC0CC
:1013B00061EA71E081E09ADC8091D2018BDE80E30A
:1013C00075DC86E090E090930101809300012DC0D0
:1013D0008091000190910101029709F05CCF63CFE9
:1013E0008091000190910101039709F063CF6BCFC9
:1013F0008091000190910101049709F06BCF70CFAB
:1014000089E090E012C0813009F4EFCE26CF8091C0
:10141000D00107CF8091D00181111FCF14CF8091CF
:10142000CE01813009F019CF08CFDF91CF911F9104
:101430000895EF92FF920F931F93CF93DF93C9ED1F
:10144000D1E00F2EF1E2EF2EF2E0FF2EF02D8E0113
:101450004E815F81688579858A819B81AC81BD8160
:10146000481759076A077B0758F0EA85FB8588818A
:1014700099810995998388831E821F82188619860F
:10148000F80186819781A085B1850196A11DB11DC6
:1014900086839783A087B1872C96CE15DF05B9F692
:1014A00081E08093D701DF91CF911F910F91FF9041
:1014B000EF9008951F920F920FB60F9211240BB662
:1014C0000F922F933F934F935F936F937F938F93DD
:1014D0009F93AF93BF93EF93FF938091D30190912C
:1014E000D401A091D501B091D6010197A109B1090C
:1014F0008093D3019093D401A093D501B093D601EA
:10150000892B8A2B8B2B89F494DF80911601909183
:101510001701A0911801B09119018093D301909304
:10152000D401A093D501B093D601FF91EF91BF9163
:10153000AF919F918F917F916F915F914F913F916B
:101540002F910F900BBE0F900FBE0F901F9018950C
:101550008FEF81B912B884B915B89BEF97B994E0B1
:1015600098B98AB91BB8E9EDF1E0118210828EE1D9
:1015700090E0A0E0B0E082839383A483B583868368
:101580009783A087B18782E395E09387828715864A
:10159000148686E990E0A0E0B0E086879787A08B6C
:1015A000B18B828B938BA48BB58B81E691E0978B6B
:1015B000868B118E108E82E390E0A0E0B0E0828FE7
:1015C000938FA48FB58F868F978FA0A3B1A380E54B
:1015D00094E093A382A315A214A281E090E0A0E07E
:1015E000B0E086A397A3A0A7B1A782A793A7A4A7BB
:1015F000B5A729EE34E037A726A711AA10AA48EC10
:1016000050E060E070E042AB53AB64AB75AB46AB0F
:1016100057AB60AF71AF2AEA38E033AF22AF15AEF7
:1016200014AE8093170290931802A0931902B093FE
:101630001A0280931B0290931C02A0931D02B09388
:101640001E028FE896E09093200280931F028EE2A4
:1016500090E01FD08093D80161E070E080E090E0DE
:10166000D1DAE1DA2BDB81E021DB68EB71E081E0AC
:101670003DDB8091D7018823E1F31092D701F9CFA8
:10168000EE0FFF1F0024001C0BBE0790F691E02D0B
:101690000994F999FECF92BD81BDF89A992780B53A
:1016A0000895262FF999FECF92BD81BDF89A019732
:1016B00000B4021639F01FBA20BD0FB6F894FA9A9A
:1016C000F99A0FBE0895262FF999FECF1FBA92BD41
:1016D00081BD20BD0FB6F894FA9AF99A0FBE019613
:0616E0000895F894FFCF0D
:1016E600090040FB0700F880020380402010080430
:1016F6000201FE7F018001000000594F5520574925
:101706004E21004C4F4144494E472E2E2E2020207C
:10171600202020004552524F5200425245414B4F25
:10172600555421202020202020205052455353205C
:10173600535441525400484947482053434F524559
:101746003A0050726F6772616D6D657220202020BD
:1017560020205269636B20426F736861650054559F
:10176600524E53204C4546543A0047414D45204F72
:101776005645522120202020202053434F52453ADF
:101786000047414D452050415553454420202020D7
:101796002053434F52453A004C4F4144494E472E41
:0417A6002E2E0000E3
:00000001FF
