S02200004353313230425F46696E616C5F50726F6A6563745F50617274322E73726563F0
S113000074C0000091C000008FC000008DC00000CB
S11300108BC0000089C0000087C0000085C00000BC
S113002083C0000081C000007FC000007DC00000CC
S11300307BC000000C94FF0977C0000075C000006D
S113004073C0000071C000006FC000006DC00000EC
S11300506BC0000069C0000067C0000065C00000FC
S113006063C0000061C000005FC000005DC000000C
S11300705BC0000059C0000057C0000055C000001C
S113008053C0000051C000004FC000007C0181013A
S113009086019901B801C903C903D9018902400342
S11300A08003D903E00324042404E703ED03F303EA
S11300B00D0401041904CB05E90543055605400563
S11300C04005A3059E06A106A606C807AB066F0752
S11300D09B06F6061A074B079109910972087808DE
S11300E091097E0891099109ED0711241FBECFEFF4
S11300F0D0E4DEBFCDBF11E0A0E0B1E0E8E2F6E17C
S113010000E00BBF02C007900D92A23AB107D9F7E5
S113011022E0A2EAB1E001C01D92A533B207E1F7E3
S11301200E944D0A0C94120B6BCF8A31910568F42E
S1130130FC01EF5FFD4F1082FC01E55EFD4F108274
S11301408091B1018F5F8093B10108952F923F9206
S1130150EF92FF920F931F93CF93DF93809113013C
S11301608695909102018913A2C0E09003016E2D3F
S113017070E080E090E0F12CEBE1F2E0A7E0B0E089
S1130180AB01082E02C0559547950A94E2F73081D9
S1130190232F30E0E901082E02C0D595C7950A94B3
S11301A0E2F70C2F0170142F117040FF04C00111ED
S11301B039C0F3943CC0111135C0013099F5AC013C
S11301C0EC01219602C035952795CA95E2F720FDEA
S11301D013C0E101288139812930310509F05FC05C
S11301E020911001E21203C0B983A88305C088E0FE
S11301F090E0998388835BC0208130E041505109AD
S113020002C0359527954A95E2F720FD10C0E1011B
S1130210888199810A9709F042C087E090E0998328
S1130220888345C09E01242B352B20FF05C00196F1
S11302308830910509F0A4CFF11010C0809110010D
S1130240E81206C087E090E0F101918380832FC01B
S113025088E090E0E1019983888329C0D1E0FD1210
S113026012C0F101808191818A30910529F488E0DE
S113027090E0918380831BC00997C9F487E090E0E4
S11302809183808314C0D2E0FD1206C087E090E021
S1130290F101918380830BC0F8E0FF1641F083E005
S11302A090E0E1019983888381E08093AD01DF913F
S11302B0CF911F910F91FF90EF903F902F90089551
S11302C02F923F928F929F92AF92BF92CF92DF92E2
S11302D0EF92FF920F931F93CF93DF9300D0CDB78C
S11302E0DEB79A8389838B30910508F052C2FC01F2
S11302F0EA5BFF4F0C94E10A81E090E09A838983E2
S1130300AFC282E090E09A838983ADC28091B0014C
S1130310813009F0A8C28091AF018111A4C28091FB
S1130320AD018111A0C28091AC01882309F45BC2A4
S11303309AC28091B00181119EC28091AF01811156
S11303408CC28091AD01811191C28091AC01813048
S113035009F08CC282E090E09A83898384C2809100
S1130360AC0181117AC282E090E09A8389837BC2D6
S11303708091B001813099F48091AF0181110FC057
S11303808091AD0181110BC08091AC01811107C036
S113039080910401909105019A838983FFC1809122
S11303A0AE01813009F059C281E090E09A838983DB
S11303B057C28091B001811117C08091AF01813083
S11303C099F48091AD0181110FC08091AC0181112C
S11303D00BC087E090E0909305018093040184E0D2
S11303E090E09A83898339C28091AE01813029F4E7
S11303F081E090E09A83898320C0909103018091E9
S11304001101981310C09091020180911201981368
S113041005C089E090E09A8389830FC088E090E06A
S11304209A8389830AC090910201809112019813E2
S113043004C089E090E09A83898310910201412FDE
S1130440469500910301602F70E060957095A3E0DC
S1130450B2E0EDE1F2E022E030E09D919423B1F0CE
S1130460808190E086239723892B81F48091110168
S1130470081305C08AE090E09A83898304C089E068
S113048090E09A838983C90150DE88C12F5F3F4F72
S113049031962A31310509F7309112015091110139
S11304A0C980DA80660F771FE1E0F2E0ABE1B2E0E9
S11304B082E090E06894AA24A3F8B12C0F2EFAE00D
S11304C08F2EF02D912C131303C0051303C013C0FA
S11304D00517A1F02281242399F01296EC9012972B
S11304E0F12CE622F722EF2859F42AE030E03A838F
S11304F029831BDE53C1C82CD92C02C0CA2CDB2C87
S11305000196319611968A319105E9F6C982DA820B
S113051045C18091B001811117C08091AF01813034
S113052099F48091AD0181110FC08091AC018111CA
S11305300BC088E090E0909305018093040184E06F
S113054090E09A83898389C18091AE01813029F436
S113055081E090E09A83898320C090910301809187
S11305601001981310C09091020180911201981308
S113057005C089E090E09A8389830FC087E090E00A
S11305809A8389830AC09091020180911201981381
S113059004C08AE090E09A83898310910201412F7C
S11305A0469550910301652F70E060957095A3E026
S11305B0B2E0EDE1F2E022E030E09D919423B1F06D
S11305C0808190E086239723892B81F48091100108
S11305D0581305C089E090E09A83898304C08AE0B7
S11305E090E09A838983C901A0DDD8C02F5F3F4F73
S11305F031962A31310509F73091120160911001C9
S113060009817A81852F86958068E82EF12CE09403
S1130610F094E1E0F2E0ABE1B2E082E090E00F2E92
S1130620F7E0AF2EF02DB12C0F2EF9E08F2EF02D28
S1130630912C131303C0561303C014C05617A9F00A
S113064022812423A1F012962C911297C22ED12C30
S1130650CE20DF20CD2859F429E030E03A832983E5
S113066064DD9CC0082D792D02C00A2D7B2D0196D6
S1130670319611968A319105E1F609837A838EC009
S11306808091B001811117C08091AF01813099F43C
S11306908091AD0181110FC08091AC0181110BC01B
S11306A089E090E0909305018093040184E090E058
S11306B09A838983D2C09091020180911301981783
S11306C059F09091030180911101981314C08AE0AC
S11306D090E09A8389830FC0909103018091110166
S11306E0981305C088E090E09A83898304C087E06A
S11306F090E09A838983CE0101961C0127DD4EC0C8
S11307008091B001811117C08091AF01813099F4BB
S11307108091AD0181110FC08091AC0181110BC09A
S11307208AE090E0909305018093040184E090E0D6
S11307309A83898392C08091AE01813029F481E04B
S113074090E09A83898320C09091020180911301E3
S1130750981310C09091030180911001981305C063
S113076087E090E09A8389830FC088E090E09A83C1
S113077089830AC09091030180911001981304C0E9
S113078089E090E09A838983CE0101961C01DEDC26
S113079005C081E090E09A83898362C089819A814F
S11307A0FC013197EA30F10508F04EC0EF5AFF4FD3
S11307B008C720E4209302012BEF2093030144C0D7
S11307C020E4209302012BEF209303013DC02091EC
S11307D0020126952093020137C020910201220FC5
S11307E02093020131C08091020186958093020119
S11307F080910301880F81608093030187E090E07A
S113080023C020910201220F2093020120910301B1
S1130810220F21602093030117C020910201269525
S1130820209302012091030126952068209303015F
S11308300BC020910201220F209302012091030199
S1130840269520682093030120910201209302023F
S11308502091030120931C0211C089819A81F4CF55
S113086089819A81A6CF89819A81AACF8091AD018D
S1130870813099F774CD89819A81E6CF0F900F90DA
S1130880DF91CF911F910F91FF90EF90DF90CF9068
S1130890BF90AF909F908F903F902F9008958F922C
S11308A09F92BF92CF92DF92EF92FF920F931F938A
S11308B0CF93DF938230910501F18330910509F4E0
S11308C079C0019709F476C0A3E0B2E0EDE1F2E06B
S11308D020EF3FEF88EF9FEF6894BB24B2F8689451
S11308E0EE24E4F8F12C0FEF10E0CFE7D0E06894A9
S11308F0CC24C1F8DD24D39406C02091AE0121306C
S113090009F05AC0E1CFAC01465F5F4F4A30510550
S1130910BCF4DC9242505109BE0102C07595679542
S11309204A95E2F744275527481B590B480102C052
S1130930880C991C4A95E2F7A401462B40832EC0EB
S113094088309105A8F4CC9244275527421B530BB9
S1130950B80102C0660F771F4A95E2F7AE01082E70
S113096002C0559547950A94E2F7462B408316C07A
S11309702830310598F4BC92A701481B590BB801E3
S113098002C0660F771F4A95E2F7AE01022E02C03D
S1130990559547950A94E2F7462B40831196319674
S11309A001962F5F3F4F8031910509F0ACCF81E074
S11309B090E002C082E090E0DF91CF911F910F910F
S11309C0FF90EF90DF90CF90BF909F908F9008950D
S11309D00197029730F5E091AA01F091AB01EF5F26
S11309E0FD4F808182B9E091AA01F091AB01E55EEF
S11309F0FD4F808185B98091AA019091AB01893125
S1130A00910539F41092AB011092AA0182E090E0B2
S1130A10089501969093AB018093AA0182E090E03F
S1130A20089581E090E00895419A419840E050E0B3
S1130A3080E026B130E02095309522FB662760F9EE
S1130A4070E09B01042E02C0220F331F0A94E2F7C8
S1130A50822B409A40984F5F5F4F4830510549F7C9
S1130A6008951F93CF93DF93EC01DEDF182FFE016F
S1130A703197E730F10508F077C0E55AFF4FA1C57B
S1130A80C7E0D0E0B1C08091B001813009F0ACC0C2
S1130A908091AF018111A8C08091AD018111A4C0E2
S1130AA08091AC01882309F485C09EC080910B011C
S1130AB0181312C08091B001813021F58091AF01EB
S1130AC081113CC08091AD01811189C08091AC013C
S1130AD0882309F474C083C080910A01181312C0DA
S1130AE08091B001813071F48091AF01811126C0F1
S1130AF08091AD01811122C08091AC01882309F459
S1130B0063C01CC08091B001811118C08091AF01F5
S1130B10813051F48091AD01811110C08091AC01FC
S1130B20882309F459C00AC0811108C08091AD011D
S1130B308130A1F18091AC01813099F18091AE01B5
S1130B408130C1F511C070DF8823A1F180910801C3
S1130B50823020F48F5F8093080146C0103479F10D
S1130B60103809F041C030C080E88093070188EF55
S1130B7080930601C1E0D0E037C0880F8160809384
S1130B800601C5E0D0E030C08695806880930601F8
S1130B90C6E0D0E029C0C3E0D0E026C0C3E0D0E086
S1130BA023C0C3E0D0E020C0C5E0D0E01DC0C6E053
S1130BB0D0E01AC010920801C4E0D0E015C08091C2
S1130BC006018F31D1F6F0CF80910601883FE1F61E
S1130BD0EECFC3E0D0E008C0C3E0D0E005C0809110
S1130BE00A011813ABCF84CF8091070180930102CF
S1130BF08091060180931B02CE01DF91CF911F915A
S1130C0008956093140170931501809316019093D5
S1130C1017016093B2017093B3018093B401909370
S1130C20B50108958BE0809381008DE790E0909367
S1130C3089008093880082E080936F001092850081
S1130C40109284008091140190911501A0911601D5
S1130C50B09117018093B2019093B301A093B401B2
S1130C60B093B5018FB780688FBF08951816190621
S1130C705CF00895000021503109E1F74F5F5F4FA8
S1130C808417950719F4089540E050E027E033E015
S1130C90F1CF46988BB9479A0000479882E090E0DC
S1130CA0E5CF089581E0F5CF0895813118F4815896
S1130CB0F0CF08958155EDCF089584E690E0D6DF16
S1130CC088E3E7DF86E0E5DF8FE0E3DF81E0E1DF73
S1130CD08AE090E0CBCF0895469A8BB9479A0000FA
S1130CE0479881E090E0C2CF08950F931F93CF936C
S1130CF0DF93182FEB01D6DF8881882351F001E0C0
S1130D00010F812FD2DF8991E7DF102F88818111B4
S1130D10F6CFDF91CF911F910F910895CF93DF9379
S1130D20EC0182DEFE013197EA30F10508F0D7C00C
S1130D30EE59FF4F46C4C3E0D0E03EC11092AE016D
S1130D40FEC090910E018913FAC025C190910E0145
S1130D508913E1C031C190910E01891791F08091FE
S1130D60B001813099F58091AC0181111AC1809153
S1130D70AF01811116C18091AD01882309F41CC112
S1130D8010C190910F01891709F4F0C08091B0014E
S1130D908130E1F48091AC01811118C08091AF01E0
S1130DA0811105C08091AD01882309F4F7C08091B9
S1130DB0AF018111FCC08091AD01813009F0FCC00C
S1130DC080910901815080930901C4C08091AD01D3
S1130DD0813031F480910901815080930901BAC0B6
S1130DE08091AC01813009F0E7C0A9C090910E0157
S1130DF0891310C080910901882381F081E08093D8
S1130E00B0011092AF011092AD011092AC01C3E099
S1130E10D0E0D2C08091090181119CC01092B00130
S1130E201092AF011092AD0181E08093AC01C9E052
S1130E30D0E0C2C08091A4019091A501883893416B
S1130E40A8F06091B1018091B701861728F46093EE
S1130E50B7018EE290E0D8D31092B10183E0809381
S1130E6009011092A5011092A40180C06091B10102
S1130E708091B701861728F46093B7018EE290E061
S1130E80C3D38091A4019091A50101969093A501EB
S1130E908093A40191C090910E01891304C0909194
S1130EA00F01891761F08091A2019091A3018D3205
S1130EB0914028F01092A3011092A20110C0C09199
S1130EC0A201D091A301209721F468E171E081E0AF
S1130ED00CDF2196D093A301C093A20147C01092C6
S1130EE0B0011092AF011092AD011092AC0160916B
S1130EF0B1018091B701861728F46093B7018EE29F
S1130F0090E082D31092B1011092A5011092A40135
S1130F10C1E0D0E051C081E08093B0011092AF01F4
S1130F201092AD011092AC01C4E0D0E045C06093D2
S1130F30B7018EE290E068D3CAE0D0E03DC01092E1
S1130F40B0011092AF011092AD011092AC01C2E059
S1130F50D0E032C01092B0011092AF0181E08093D2
S1130F60AD011092AC01C8E0D0E026C01092B001EF
S1130F701092AF0181E08093AE011092AD016091B7
S1130F80B1018091B701861790F2CAE0D0E014C095
S1130F90C5E0D0E011C0C3E0D0E00EC0C6E0D0E0B0
S1130FA00BC08091AC01882309F401CF0FCF80914D
S1130FB0AD01813009F40ECFCE01DF91CF910895B8
S1130FC01F93CF93DF93EC01FC013197E930F105D6
S1130FD008F094C0E459FF4FF4C226DD90910C014F
S1130FE0891311C08091B00181110DC08091AF01AE
S1130FF0811109C08091AD01811105C08091AC01BE
S1131000882309F486C110DD90910D01891312C063
S11310108091B00181119BC18091AF0181112AC0DF
S11310208091AD0181110EC08091AC01882309F437
S11310307EC108C08091B001811189C18091AF0146
S1131040811118C08091AD01811185C18091AC01DD
S1131050882309F474C17FC18091AF01811134C028
S11310608091AD0181117FC15091AC01552309F4E8
S1131070A0C079C18091AF01813051F48091AD015C
S113108081116CC18091AC01882309F44DC166C102
S113109081111AC08091AD01813061F48091AC015D
S11310A0882309F4DAC006C08091AC01882309F4CE
S11310B0D4C00AC08091AD01882309F4DFC08091B7
S11310C0AC01813031F4DAC08091AC01813009F493
S11310D0D5C08091AE01813089F069E271E081E090
S11310E004DE47C1A1DC90910C01891328C111C110
S11310F09BDC90910D01891322C119C1D3DD10929B
S1131100A9011092A8011092A701C1E0D0E031C159
S113111081E0CBDD6FE271E081E0E7DD82E090E029
S11311209093010180930001C2E0D0E022C190912C
S1131130B70191110DC0C0E0D0E010E011C0DA3069
S113114011F41F5FD0E0CA3039F4DF5FC0E004C09F
S113115080E010E0C0E0D0E0CF5F8F5F8913EFCF75
S11311606BE471E081E0C1DD80E3810FB5DD80E3F4
S11311708D0FB2DD80E38C0FAFDD80E3ADDD80E366
S113118094DD83E090E09093010180930001C3E03B
S1131190D0E0EFC081E089DD67E571E081E0A5DDA5
S11311A084E090E09093010180930001C4E0D0E0DA
S11311B0E0C03091B1018091A601381709F444C010
S11311C03323C9F04091A9012091A8018091A7017E
S11311D090E02A3011F44F5F252F8A3011F42F5FED
S11311E0852F8F5F9F5F3913F4CF8093A7012093DE
S11311F0A8014093A9016FE871E081E076DD809158
S1131200A901805D69DD8091A801805D65DD809123
S1131210A701805D61DD80E35FDD80E346DD109240
S1131220A9011092A8011092A7016091B1018091C7
S1131230B701861728F46093B7018EE290E0D2D10B
S11312408091B1018093A60185E090E09093010123
S113125080930001C5E0D0E08CC063E771E081E0D9
S113126044DD80910901805D37DD87E090E0909353
S1131270010180930001C7E0D0E07BC06FE771E01B
S113128081E033DD3091B1013323C9F04091A901EC
S11312902091A8018091A70190E02A3011F44F5FBA
S11312A020E08A3011F42F5F80E08F5F9F5F9313FB
S11312B0F4CF8093A7012093A8014093A9018091C2
S11312C0A901805D09DD8091A801805D05DD809123
S11312D0A701805D01DD80E3FFDC80E3E6DC1092A2
S11312E0A9011092A8011092A7016091B101809107
S11312F0B701861728F46093B7018EE290E084D199
S113130088E090E09093010180930001C8E0D0E070
S113131030C08091000190910101039709F007CF3B
S113132030CFC9E0D0E025C0C6E0D0E022C0809133
S1131330000190910101049709F02CCF31CF8091E5
S1131340000190910101029709F0E2CEE7CE8130CD
S113135009F482CEB9CE8091AF019ACE8091AF01CB
S11313608111B2CEA7CE8091AD01813009F0ACCE0F
S11313709BCECE01DF91CF911F910895EF92FF9202
S11313800F931F93CF93DF93C8EBD1E00F2EF0E0C0
S1131390EF2EF2E0FF2EF02D8E014E815F816885E5
S11313A079858A819B81AC81BD81481759076A0779
S11313B07B0758F0EA85FB85888199810995998393
S11313C088831E821F8218861986F8018681978178
S11313D0A085B1850196A11DB11D86839783A08741
S11313E0B1872C96CE15DF05B9F681E08093B6015E
S11313F0DF91CF911F910F91FF90EF9008951F926D
S11314000F920FB60F9211240BB60F922F933F93A6
S11314104F935F936F937F938F939F93AF93BF93F8
S1131420EF93FF938091B2019091B301A091B40125
S1131430B091B5010197A109B1098093B2019093CC
S1131440B301A093B401B093B501892B8A2B8B2BE4
S113145089F494DF8091140190911501A0911601F3
S1131460B09117018093B2019093B301A093B4019A
S1131470B093B501FF91EF91BF91AF919F918F917F
S11314807F916F915F914F913F912F910F900BBE80
S11314900F900FBE0F901F9018958FEF81B912B85F
S11314A084B915B89BEF97B994E098B98AB91BB879
S11314B0E8EBF1E0118210828EE190E0A0E0B0E070
S11314C082839383A483B58386839783A087B1871C
S11314D081E395E0938782871586148648EC50E073
S11314E060E070E046875787608B718B428B538B2B
S11314F0648B758B80E691E0978B868B118E108EB2
S113150082E390E0A0E0B0E0828F938FA48FB58F48
S1131510868F978FA0A3B1A38FE494E093A382A3B3
S113152015A214A281E090E0A0E0B0E086A397A306
S1131530A0A7B1A782A793A7A4A7B5A728EE34E0D4
S113154037A726A711AA10AA42AB53AB64AB75AB5D
S113155046AB57AB60AF71AF20EE37E033AF22AF8D
S113156015AE14AE8093F6019093F701A093F801A1
S1131570B093F9018093FA019093FB01A093FC01CD
S1131580B093FD018EE896E09093FF018093FE01F5
S11315908EE290E01FD08093B70161E070E080E0BC
S11315A090E02FDB3FDB89DB81E07FDB66E971E0E4
S11315B081E09BDB8091B6018823E1F31092B601B0
S11315C0F9CFEE0FFF1F0024001C0BBE0790F6910D
S11315D0E02D0994F999FECF92BD81BDF89A99271F
S11315E080B50895262FF999FECF92BD81BDF89A52
S11315F0019700B4021639F01FBA20BD0FB6F89453
S1131600FA9AF99A0FBE0895262FF999FECF1FBAB8
S113161092BD81BD20BD0FB6F894FA9AF99A0FBE17
S10B162001960895F894FFCF30
S1131628090040FB0700F8800203804020100804EA
S1131638FE7F0180010000004C4F4144494E472E73
S11316482E2E202020202020004552524F520042A6
S11316585249434B20425245414B45522120205088
S11316685245535320535441525400484947482043
S113167853434F52453A0050726F6772616D6D65FE
S1131688722020202020205269636B20426F7368E7
S11316986165005455524E53204C4546543A004710
S11316A8414D45204F5645522120202020202053CB
S11316B8434F52453A004C4F4144494E472E2E2E33
S10516C800001C
S9030000FC
