:1000000056C0000071C000006FC000006DC000004D
:100010006BC0000069C0000067C0000065C0000040
:1000200063C0000061C000005FC000005DC0000050
:100030005BC00000EAC4000057C0000055C00000CB
:1000400053C0000051C000004FC000004DC0000070
:100050004BC0000049C0000047C0000045C0000080
:1000600043C0000041C000003FC000003DC0000090
:100070003BC0000039C0000037C0000035C00000A0
:1000800033C0000031C000002FC00000EE02F302B8
:10009000F802FC0229033703A503100430046204AC
:1000A000AC0469046F047704930485049F0411244D
:1000B0001FBECFEFD0E4DEBFCDBF11E0A0E0B1E0C6
:1000C000E6E8FBE000E00BBF02C007900D92AA310A
:1000D000B107D9F721E0AAE1B1E001C01D92A6372E
:1000E000B207E1F7E0D44DC58BCF0197029730F509
:1000F000E0911A01F0911B01EE5AFE4F808182B906
:10010000E0911A01F0911B01EC59FE4F808185B9F5
:1001100080911A0190911B018131910539F410925F
:100120001B0110921A0182E090E0089501969093CD
:100130001B0180931A0182E090E0089581E090E035
:100140000895419A419840E050E080E026B130E0C7
:100150002095309522FB662760F970E09B01042E04
:1001600002C0220F331F0A94E2F7822B409A409874
:100170004F5F5F4F4830510549F70895CF93DF93A4
:10018000EC01DFDFC330D105A1F03CF4C130D10573
:1001900069F1C230D10549F020C0C630D1050CF458
:1001A00046C0C630D10551F018C0883009F041C0B2
:1001B0001DC0803401F18038C9F428C08823B1F013
:1001C00090910401923020F49F5F9093040131C01C
:1001D000803489F0803869F519C080E88093030184
:1001E00088EF80930201C1E0D0E023C010920401A7
:1001F000C3E0D0E01EC0809102018F3191F0880FE2
:10020000816080930201C4E0D0E013C080910201BC
:10021000883F51F08695806880930201C5E0D0E068
:1002200008C0C4E0D0E005C0C5E0D0E002C0C6E030
:10023000D0E080910301809352018091020180936C
:100240006401CE01DF91CF910895EF92FF920F9359
:100250001F93CF93DF93EC0174DFC230D10539F0E7
:10026000C330D10509F462C0219729F45AC08830FF
:1002700009F05CC059C028EF3FEF82E090E068943D
:10028000EE24E1F802E110E0CFEFD0E0AFE7B0E01C
:10029000FF24F3948A309105F4F4FC01EE5AFE4FEA
:1002A000F082AC0142505109BD0102C075956795BD
:1002B0004A95E2F744275527421B530BFE0102C023
:1002C000EE0FFF1F4A95E2F7AF01462BFC01EC59F8
:1002D000FE4F40831CC028303105C8F4FC01EE5AA3
:1002E000FE4FE082A801481B590BBE0102C0660FF9
:1002F000771F4A95E2F7AD01022E02C0559547954A
:100300000A94E2F7462BFC01EC59FE4F408301961C
:100310002F5F3F4F8231910509F0BCCFC1E0D0E0A3
:1003200005C0C2E0D0E002C0C3E0D0E0CE01DF9162
:10033000CF911F910F91FF90EF9008956093050169
:1003400070930601809307019093080160931C014C
:1003500070931D0180931E0190931F0108958BE0FF
:10036000809381008DE790E09093890080938800CE
:1003700082E080936F00109285001092840080913B
:10038000050190910601A0910701B09108018093A9
:100390001C0190931D01A0931E01B0931F018FB704
:1003A00080688FBF0895181619065CF00895000044
:1003B00021503109E1F74F5F5F4F8417950719F41A
:1003C000089540E050E027E033E0F1CF46988BB944
:1003D000479A0000479882E090E0E5CF089581E0D9
:1003E000F5CF0895813118F48158F0CF08958155E3
:1003F000EDCF089584E690E0D6DF88E3E7DF86E07E
:10040000E5DF8FE0E3DF81E0E1DF8AE090E0CBCF62
:100410000895469A8BB9479A0000479881E090E08A
:10042000C2CF08950F931F93CF93DF93182FEB0143
:10043000D6DF8881882351F001E0010F812FD2DFC0
:100440008991E7DF102F88818111F6CFDF91CF915D
:100450001F910F9108952F923F921F93CF93DF9397
:10046000F1018381869590910101891399C0E10181
:1004700030900001A32DB0E020E030E010E0E4E691
:10048000F1E0AD01022E02C0559547950A94E2F7BE
:10049000808190E0022E02C0959587950A94E2F73C
:1004A000782F7170642F617040FF04C0711132C0E9
:1004B0001F5F34C061112EC0713061F5808190E002
:1004C000A9014F5F5F4F02C0959587954A95E2F766
:1004D00080FD0AC089819A81079709F055C086E09E
:1004E00090E09A8389834BC0808190E0A9014150BC
:1004F000510902C0959587954A95E2F780FD0EC097
:1005000089819A81089709F041C085E090E09A833B
:10051000898335C0842B952B80FF06C02F5F3F4F0A
:100520002830310509F0ADCF11110DC08881381286
:1005300005C085E090E09A83898332C086E090E030
:100540009A8389832DC0113089F489819A818830FA
:10055000910529F486E090E09A83898321C007976A
:10056000F9F485E090E09A8389831AC0123029F467
:1005700085E090E09A83898313C0183041F481E0CC
:1005800031DF88E346DF0CC019E001C019E081E0EB
:1005900029DF80E3810F3DDF82E090E09A83898349
:1005A000DF91CF911F913F902F9008952F923F920E
:1005B000CF93DF9300D000D0CDB7DEB79B838A8383
:1005C00080E88C838EEF8983BCDDEA81FB81E93092
:1005D000F10508F067C1EA5BFF4FCAC281E090E015
:1005E0009B838A83C5C182E090E09B838A83BDC1DF
:1005F000883009F0BAC17BC140910101413021F43A
:1006000084E090E09B838A8346956091000170E0CE
:100610006095709582E090E0FC01EE5AFE4F2081DB
:10062000242391F0FC01EC59FE4F208130E0262379
:100630003723232B49F4FC01EE5AFE4F1082FC01B4
:10064000EC59FE4F10824BC101968231910521F782
:100650002EC1909101018C81981304C083E090E039
:100660009B838A83CE0101961C01F5DE20C1609137
:1006700000016F3771F480910101813029F487E026
:1006800090E09B838A830DC086E090E09B838A8301
:1006900008C080910101813021F487E090E09B83C4
:1006A0008A8340910101469582E090E0A62FB0E058
:1006B000A095B095FC01EE5AFE4F20812423E9F06D
:1006C000FC01EC59FE4F208130E02A233B23232BF1
:1006D000A1F46F3729F428E030E03B832A8304C07B
:1006E00027E030E03B832A83FC01EE5AFE4F108264
:1006F000FC01EC59FE4F1082DAC00196823191055F
:10070000C9F670E060957095660F771F82E090E003
:10071000FC01EE5AFE4F2081242391F0FC01EC599C
:10072000FE4F208130E026233723232B49F4FC01A0
:10073000EE5AFE4F1082FC01EC59FE4F1082FFC0B2
:1007400001968231910521F7B2C050910001898153
:1007500058130EC080910101813029F487E090E0A8
:100760009B838A830DC085E090E09B838A8308C0C9
:1007700080910101813021F488E090E09B838A839D
:1007800040910101469582E090E0652F70E0609510
:100790007095FC01EE5AFE4F20812423E9F0FC0104
:1007A000EC59FE4F208130E026233723232BA1F480
:1007B0005E3F29F427E030E03B832A8304C028E031
:1007C00030E03B832A83FC01EE5AFE4F1082FC018D
:1007D000EC59FE4F10826BC0019682319105C9F62B
:1007E0005695506882E090E0FC01EE5AFE4F208161
:1007F000242389F0FC01EC59FE4F20813081252310
:10080000231309C0FC01EE5AFE4F1082FC01EC5983
:10081000FE4F10827AC001968231910529F747C0B8
:10082000909101018C81981749F0809100018F37D8
:1008300091F488E090E09B838A830DC08091000151
:100840008F3729F486E090E09B838A8304C085E09B
:1008500090E09B838A83CE0101961C01FCDD27C0BA
:1008600090910001898198130FC0909101018C81B2
:10087000981729F087E090E09B838A830EC085E07B
:1008800090E09B838A8309C0909101018C81981329
:1008900004C086E090E09B838A83CE0101961C0110
:1008A000DADD05C081E090E09B838A8361C08A81A4
:1008B0009B81FC013197E830F10508F04DC0E15B08
:1008C000FF4F56C120E4209301012BEF209300013C
:1008D00043C0209101012695209301013DC08091E4
:1008E0000101880F8093010184E090E035C0809180
:1008F000010186958093010180910001880F81603C
:100900008093000185E090E027C080910101880F6D
:100910008093010180910001880F81608093000124
:1009200087E090E019C020910101269520930101F4
:100930002091000126952068209300010DC0809130
:100940000101880F809301018091000186958068E4
:100950008093000188E090E02091010120935301F1
:10096000209100012093650106C08A819B81F4CF0C
:100970008A819B81A7CF0F900F900F900F90DF91EE
:10098000CF913F902F900895EF92FF920F931F9376
:10099000CF93DF93C1E2D1E00F2EF1E5EF2EF1E02E
:1009A000FF2EF02D8E014E815F81688579858A81C9
:1009B0009B81AC81BD81481759076A077B0758F0B6
:1009C000EA85FB85888199810995998388831E82B0
:1009D0001F8218861986F80186819781A085B185C6
:1009E0000196A11DB11D86839783A087B1872C96A0
:1009F000CE15DF05B9F681E080932001DF91CF911C
:100A00001F910F91FF90EF9008951F920F920FB6D4
:100A10000F9211240BB60F922F933F934F935F9336
:100A20006F937F938F939F93AF93BF93EF93FF93B6
:100A300080911C0190911D01A0911E01B0911F0198
:100A40000197A109B10980931C0190931D01A09306
:100A50001E01B0931F01892B8A2B8B2B89F494DF05
:100A60008091050190910601A0910701B0910801C4
:100A700080931C0190931D01A0931E01B0931F0150
:100A8000FF91EF91BF91AF919F918F917F916F9166
:100A90005F914F913F912F910F900BBE0F900FBE22
:100AA0000F901F9018958FEF81B912B884B915B8BF
:100AB0009BEF97B994E098B98AB91BB8E1E2F1E0ED
:100AC0001182108282E390E0A0E0B0E08283938301
:100AD000A483B58386839783A087B1872EEB30E00C
:100AE000338722871586148648EC50E060E070E07A
:100AF00046875787608B718B428B538B648B758BCA
:100B000026ED32E0378B268B118E108E828F938FDD
:100B1000A48FB58F868F978FA0A3B1A385E291E0B4
:100B200093A382A315A214A281E090E0A0E0B0E01C
:100B300086A397A3A0A7B1A782A793A7A4A7B5A7A9
:100B400085E790E097A786A761E070E080E090E0FD
:100B5000F5DB05DC4FDC81E045DC69E071E081E03C
:100B600061DC809120018823E1F310922001F9CF0C
:100B7000EE0FFF1F0024001C0BBE0790F691E02D26
:060B80000994F894FFCF78
:100B8600FB40F8800201000000476F20746F20735D
:0A0B96006C656570206E6F772E000D
:00000001FF
