S02200004353313230425F46696E616C5F50726F6A6563745F50617274322E73726563F0
S113000061C000007CC000007AC0000078C000001D
S113001076C0000074C0000072C0000070C0000010
S11300206EC000006CC000006AC0000068C0000020
S113003066C00000A5C6000062C0000060C00000E9
S11300405EC000005CC000005AC0000058C0000040
S113005056C0000054C0000052C0000050C0000050
S11300604EC000004CC000004AC0000048C0000060
S113007046C0000044C0000042C0000040C0000070
S11300803EC000003CC000003AC00000120217024B
S11300901C0220024C025B02E70279039E03D30395
S11300A01704DA03E003E6030004F4030C045F0519
S11300B0E804F204E504FA0417051F0528054005C1
S11300C03605590511241FBECFEFD0E4DEBFCDBFE6
S11300D011E0A0E0B1E0E0E5FFE000E00BBF02C00A
S11300E007900D92A035B107D9F721E0A0E5B1E062
S11300F001C01D92AE3DB207E1F790D627C780CF6D
S11301008A31910540F4FC01E655FE4F1082FC0152
S1130110EC53FE4F108208952F923F92EF92FF927C
S11301200F931F93CF93DF9380910C018695909149
S113013003018913A4C000910201A02FB0E020E0C4
S113014030E010E0E4ECF1E00F2EF5E0EF2EF12CBE
S1130150F02DAD01022E02C0559547950A94E2F7A1
S1130160808190E0022E02C0959587950A94E2F76B
S1130170782F7170642F617040FF04C071113BC00F
S11301801F5F3DC0611137C07130A9F58081A9019D
S113019090E0B9016F5F7F4F02C0959587956A958E
S11301A0E2F780FD12C0E10188819981079709F087
S11301B05CC080910901081303C0F982E88205C07C
S11301C086E090E0998388835AC0808190E0415012
S11301D0510902C0959587954A95E2F780FD0FC0B5
S11301E0E10188819981089709F03FC085E090E09A
S11301F09983888344C0842B952B80FF06C02F5F8E
S11302003F4F2830310509F0A4CF111110C080915F
S11302100901081306C085E090E0F1019183808311
S11302202EC086E090E0E1019983888328C01130D4
S113023091F4F101808191818830910529F486E05F
S113024090E0918380831BC00797C9F485E090E018
S11302509183808314C0123031F485E090E0F10181
S1130260918380830CC0183051F082E090E0E1016A
S11302709983888380915601815080935601DF9140
S1130280CF911F910F91FF90EF903F902F90089581
S11302900197029730F5E0915301F0915401E6552E
S11302A0FE4F808182B9E0915301F0915401EC53E7
S11302B0FE4F808185B98091530190915401893119
S11302C0910539F4109254011092530182E090E0A8
S11302D008950196909354018093530182E090E035
S11302E0089581E090E00895419A419840E050E0FB
S11302F080E026B130E02095309522FB662760F936
S113030070E09B01042E02C0220F331F0A94E2F70F
S1130310822B409A40984F5F5F4F4830510549F710
S11303200895CF93DF93EC01DFDFC330D105A1F053
S11303303CF4C130D10569F1C230D10549F020C087
S1130340C630D1050CF446C0C630D10551F018C0F2
S1130350883009F041C01DC0803401F18038C9F4EF
S113036028C08823B1F090910601923020F49F5F59
S11303709093060131C0803489F0803869F519C042
S113038080E88093050188EF80930401C1E0D0E008
S113039023C010920601C3E0D0E01EC08091040186
S11303A08F3191F0880F816080930401C4E0D0E024
S11303B013C080910401883F51F086958068809332
S11303C00401C5E0D0E008C0C4E0D0E005C0C5E049
S11303D0D0E002C0C6E0D0E0809105018093AA017C
S11303E0809104018093C401CE01DF91CF910895DF
S11303F02F923F92BF92CF92DF92EF92FF920F9390
S11304001F93CF93DF9300D0CDB7DEB79A83898350
S11304106BDFE981FA81E930F10508F0B4C1EA5BE8
S1130420FF4F8BC581E090E09A8389830CC282E000
S113043090E09A83898304C2883009F001C2C6C15E
S11304404091030180910B01481304C084E090E0C3
S11304509A83898346956091020170E06095709556
S113046082E090E0FC01E655FE4F2081242379F0E0
S1130470FC01EC53FE4F208130E026233723232B4D
S113048031F424E030E03A8329833ADE81C10196D5
S11304908A31910539F77CC19091030180910C0157
S11304A0981304C083E090E09A838983CE01019677
S11304B01C0132DE6DC150910201B0910A015B133F
S11304C010C09091030180910B01981305C087E03F
S11304D090E09A8389830FC086E090E09A838983B1
S11304E00AC09091030180910B01981304C087E026
S11304F090E09A838983A09103014A2F469582E074
S113050090E0652F70E060957095FC01E655FE4F14
S113051020812423D9F0FC01EC53FE4F208130E0EC
S113052026233723232B91F45B1305C028E030E006
S11305303A83298304C027E030E03A832983E0DD4D
S113054080915B018F5F80935B0122C101968A31A8
S11305509105D9F610910B01F9800A81652F70E09D
S113056060957095660F771F82E090E00F2EF6E09D
S1130570DF2EF02DE12C6894BB24B3F8C12CA11319
S113058003C05B1303C017C05B17C1F0FC01E65541
S1130590FE4F20812423A1F0FC01EC53FE4F208167
S11305A030E026233723232B59F428E030E03A8324
S11305B02983A6DDEDC0FB2C0C2D02C0FD2C0E2DD5
S11305C001968A319105D9F6F9820A83E1C05091E6
S11305D00201B09109015B1310C090910301809155
S11305E00B01981305C087E090E09A8389830FC0BC
S11305F085E090E09A8389830AC0909103018091F9
S11306000B01981304C088E090E09A838983A09139
S113061003014A2F469582E090E0652F70E06095D3
S11306207095FC01E655FE4F20812423D9F0FC018E
S1130630EC53FE4F208130E026233723232B91F403
S11306405B1305C027E030E03A83298304C028E027
S113065030E03A83298354DD80915B018F5F80937E
S11306605B0196C001968A319105D9F610910B0170
S1130670F9800A81652F6695606870E060957095D1
S113068082E090E00F2EF5E0DF2EF02DE12C0F2E0E
S1130690F7E0BF2EF02DC12CA11303C05B1303C0E0
S11306A01CC05B17E9F0FC01E655FE4F20812423B2
S11306B0C9F0FC01EC53FE4F208130E026233723A0
S11306C0232B81F427E030E03A83298319DD8091DC
S11306D05B018F5F80935B015BC0FB2C0C2D02C020
S11306E0FD2C0E2D01968A319105B1F6F9820A830B
S11306F04FC09091030180910C01981759F090918B
S1130700020180910A01981314C088E090E09A8352
S113071089830FC09091020180910A01981305C04A
S113072086E090E09A83898304C085E090E09A8310
S11307308983CE0101961C01EFDC2AC0909103014C
S113074080910C01981310C09091020180910901CD
S1130750981305C085E090E09A8389830FC086E0F2
S113076090E09A8389830AC09091020180910901E3
S1130770981304C087E090E09A838983CE010196A0
S11307801C01CADC05C081E090E09A8389835BC0C8
S113079089819A81FC013197E830F10508F047C05E
S11307A0E15BFF4FCAC320E4209303012BEF2093A6
S11307B002013DC02091030126952093030137C017
S11307C020910301220F2093030131C08091030182
S11307D086958093030180910201880F8160809344
S11307E0020185E090E023C020910301220F2093B1
S11307F0030120910201220F21602093020117C0FE
S1130800209103012695209303012091020126954E
S11308102068209302010BC020910301220F209332
S11308200301209102012695206820930201209162
S113083003012093AB01209102012093C50106C05E
S113084089819A81F4CF89819A81ADCF0F900F90DD
S1130850DF91CF911F910F91FF90EF90DF90CF9098
S1130860BF903F902F900895AF92BF92DF92EF9286
S1130870FF920F931F93CF93DF93EC0135DDC230CA
S1130880D10539F0C330D10509F487C0219729F483
S11308907FC0883009F081C07EC040EF5FEF28EF51
S11308A03FEF82E090E06894DD24D2F80AE110E0A2
S11308B0CFEFD0E0AFE7B0E06894EE24E1F8FF2496
S11308C0F3948A309105F4F4FC01E655FE4FF0826E
S11308D0BC0162507109FD0102C0F595E7956A9566
S11308E0E2F766277727621B730B5E0102C0AA0C2E
S11308F0BB1C6A95E2F7B5016E2BFC01EC53FE4F6D
S113090060833AC028303105D8F4FC01E655FE4F27
S1130910E08266277727641B750BFE0102C0EE0F89
S1130920FF1F6A95E2F7BD01022E02C07595679517
S11309300A94E2F76E2BFC01EC53FE4F60831CC05B
S113094048305105C8F4FC01E655FE4FD082B80189
S1130950681B790BFE0102C0EE0FFF1F6A95E2F7D8
S1130960BD01042E02C0759567950A94E2F76E2BBB
S1130970FC01EC53FE4F608301962F5F3F4F4F5FA6
S11309805F4F8A31910509F09CCFC1E0D0E005C0EA
S1130990C2E0D0E002C0C3E0D0E0CE01DF91CF914D
S11309A01F910F91FF90EF90DF90BF90AF9008954B
S11309B0CF93DF93EC0198DCFE013197EB30F10526
S11309C008F06AC0E95AFF4FB8C2C5E0D0E07FC062
S11309D09091070189137BC081E080935A01C3E0A1
S11309E0D0E075C090910701891709F470C0C4E084
S11309F0D0E06DC09091070189130AC0809156011F
S1130A00813059F081E080935901C6E0D0E05FC0A5
S1130A1080915601813009F05AC01092560180919C
S1130A20000181508093000181114CC042C090911B
S1130A300701891709F44BC0C7E0D0E048C0909182
S1130A400701891344C010925901C3E0D0E03FC0AC
S1130A509091070189133BC081E080935701109264
S1130A60580110925601C3E0D0E031C02091070133
S1130A7090910801922B891751F1C9E0D0E027C069
S1130A802091070190910801922B8917F1F010929F
S1130A905701C2E0D0E01BC010925A0110925901D4
S1130AA0109258011092570110925601C1E0D0E003
S1130AB00EC081E080935501CBE0D0E008C0C2E0D5
S1130AC0D0E005C0C8E0D0E002C0CAE0D0E0CE016A
S1130AD0DF91CF91089560930D0170930E0180937F
S1130AE00F019093100160935C0170935D018093FA
S1130AF05E0190935F0108958BE0809381008DE700
S1130B0090E0909389008093880082E080936F0046
S1130B10109285001092840080910D0190910E0135
S1130B20A0910F01B091100180935C0190935D013D
S1130B30A0935E01B0935F018FB780688FBF089563
S1130B40181619065CF00895000021503109E1F7E8
S1130B504F5F5F4F8417950719F4089540E050E004
S1130B6027E033E0F1CF46988BB9479A00004798C5
S1130B7082E090E0E5CF089581E0F5CF08958131DA
S1130B8018F48158F0CF08958155EDCF089584E687
S1130B9090E0D6DF88E3E7DF86E0E5DF8FE0E3DFA0
S1130BA081E0E1DF8AE090E0CBCF0895469A8BB9EB
S1130BB0479A0000479881E090E0C2CF08950F93D0
S1130BC01F93CF93DF93182FEB01D6DF88818823FF
S1130BD051F001E0010F812FD2DF8991E7DF102F5F
S1130BE088818111F6CFDF91CF911F910F910895E4
S1130BF0CF938230910551F01CF4019751F125C037
S1130C008330910551F0049771F01FC080915A010F
S1130C10813041F183E090E070C020915A0121308D
S1130C2009F06BC01FC080915A01811105C08091E9
S1130C305501882371F016C08130A1F480915501CB
S1130C40882381F0813071F44DC096DF81E090E01B
S1130C5054C081E094DF61E171E081E0B0DF82E0C3
S1130C6090E04BC080915B01882309F444C08091DB
S1130C7001018F5F80930101809152018A3039F420
S1130C80809151018F5F80935101109252018091A4
S1130C9050018A3039F4809152018F5F8093520160
S1130CA010925001C091500181E08C0F809350014B
S1130CB081E065DF6DE271E081E081DF80915101C7
S1130CC0805D74DF80915201805D70DF81E38C0F61
S1130CD06DDF80E36BDF80E352DF10925B0184E021
S1130CE090E00BC081E04BDF64E371E081E067DFFB
S1130CF085E090E002C084E090E0CF910895EF9207
S1130D00FF920F931F93CF93DF93C1E6D1E00F2E91
S1130D10F9EAEF2EF1E0FF2EF02D8E014E815F8176
S1130D20688579858A819B81AC81BD814817590783
S1130D306A077B0758F0EA85FB85888199810995C4
S1130D40998388831E821F8218861986F8018681FA
S1130D509781A085B1850196A11DB11D86839783D6
S1130D60A087B1872C96CE15DF05B9F681E0809374
S1130D706001DF91CF911F910F91FF90EF90089543
S1130D801F920F920FB60F9211240BB60F922F934E
S1130D903F934F935F936F937F938F939F93AF93FF
S1130DA0BF93EF93FF9380915C0190915D01A091BB
S1130DB05E01B0915F010197A109B10980935C01C3
S1130DC090935D01A0935E01B0935F01892B8A2B00
S1130DD08B2B89F494DF80910D0190910E01A091E9
S1130DE00F01B091100180935C0190935D01A09379
S1130DF05E01B0935F01FF91EF91BF91AF919F911D
S1130E008F917F916F915F914F913F912F910F90AF
S1130E100BBE0F900FBE0F901F9018958FEF81B9E6
S1130E2012B884B915B89BEF97B994E098B98AB908
S1130E301BB8E1E6F1E01182108282E390E0A0E0C9
S1130E40B0E082839383A483B58386839783A0874A
S1130E50B18721E931E0338722871586148648EC6F
S1130E6050E060E070E046875787608B718B428B5F
S1130E70538B648B758B28EF31E0378B268B118E67
S1130E80108E828F938FA48FB58F868F978FA0A398
S1130E90B1A324E334E033A322A315A214A241E0B6
S1130EA050E060E070E046A357A360A771A742A793
S1130EB053A764A775A728E431E037A726A711AA8A
S1130EC010AA40E253E060E070E042AB53AB64AB85
S1130ED075AB46AB57AB60AF71AF28EF35E033AFBE
S1130EE022AF15AE14AE80939F019093A001A093FE
S1130EF0A101B093A2018093A3019093A401A093B4
S1130F00A501B093A60188ED94E09093A801809385
S1130F10A70161E070E080E090E0DDDDEDDD37DE2B
S1130F2081E02DDE65E471E081E049DE80916001BD
S1130F308823E1F310926001F9CFEE0FFF1F002424
S1130F40001C0BBE0790F691E02D0994F894FFCF96
S1130F500301FB40F880020804FE7F0180010000C9
S1130F6000425249434B20425245414B45522120B5
S1130F702050524553532053544152540053434F2D
S1130F8052453A0047414D45204F564552212020B5
S1130F9020202020004C4F4144494E472E2E2E0045
S9030000FC
