:1000000056C0000071C000006FC000006DC000004D
:100010006BC0000069C0000067C0000065C0000040
:1000200063C0000061C000005FC000005DC0000050
:100030005BC00000CCC5000057C0000055C00000E8
:1000400053C0000051C000004FC000004DC0000070
:100050004BC0000049C0000047C0000045C0000080
:1000600043C0000041C000003FC000003DC0000090
:100070003BC0000039C0000037C0000035C00000A0
:1000800033C0000031C000002FC000000202070290
:100090000C0210023F024E02DA026C039103C60307
:1000A0000C04CD03D303DB03F503E903010411249E
:1000B0001FBECFEFD0E4DEBFCDBF11E0A0E0B1E0C6
:1000C000EEE6FDE000E00BBF02C007900D92A83203
:1000D000B107D9F721E0A8E2B1E001C01D92A43A2E
:1000E000B207E1F7C2D541C68BCF8A31910540F402
:1000F000FC01E059FE4F1082FC01E657FE4F1082D2
:1001000008952F923F92EF92FF920F931F93CF93F8
:10011000DF938091090186959091020189139FC018
:1001200000910101A02FB0E020E030E010E0EAE80B
:10013000F1E00F2EF5E0EF2EF12CF02DAD01022EA7
:1001400002C0559547950A94E2F7808190E0022E0F
:1001500002C0959587950A94E2F7782F7170642F05
:10016000617040FF04C071113BC01F5F3DC0611151
:1001700037C07130A9F58081A90190E0B9016F5FA6
:100180007F4F02C0959587956A95E2F780FD12C072
:10019000E10188819981079709F05CC0809106018F
:1001A000081303C0F982E88205C086E090E09983D5
:1001B000888355C0808190E04150510902C09595D7
:1001C00087954A95E2F780FD0FC0E101888199810A
:1001D000089709F03FC085E090E0998388833FC08D
:1001E000842B952B80FF06C02F5F3F4F28303105B1
:1001F00009F0A4CF111110C080910601081306C0A8
:1002000085E090E0F1019183808329C086E090E051
:10021000E1019983888323C0113091F4F101808139
:1002200091818830910529F486E090E09183808364
:1002300016C00797A1F485E090E0918380830FC0FA
:10024000123031F485E090E0F1019183808307C0A2
:10025000183029F082E090E0E10199838883DF91F2
:10026000CF911F910F91FF90EF903F902F900895A5
:100270000197029730F5E0912B01F0912C01E059A4
:10028000FE4F808182B9E0912B01F0912C01E6575D
:10029000FE4F808185B980912B0190912C0189318D
:1002A000910539F410922C0110922B0182E090E01C
:1002B0000895019690932C0180932B0182E090E0A9
:1002C000089581E090E00895419A419840E050E01F
:1002D00080E026B130E02095309522FB662760F95A
:1002E00070E09B01042E02C0220F331F0A94E2F734
:1002F000822B409A40984F5F5F4F4830510549F735
:100300000895CF93DF93EC01DFDFC330D105A1F077
:100310003CF4C130D10569F1C230D10549F020C0AB
:10032000C630D1050CF446C0C630D10551F018C016
:10033000883009F041C01DC0803401F18038C9F413
:1003400028C08823B1F090910501923020F49F5F7E
:100350009093050131C0803489F0803869F519C067
:1003600080E88093040188EF80930301C1E0D0E02E
:1003700023C010920501C3E0D0E01EC080910301AC
:100380008F3191F0880F816080930301C4E0D0E049
:1003900013C080910301883F51F086958068809357
:1003A0000301C5E0D0E008C0C4E0D0E005C0C5E06E
:1003B000D0E002C0C6E0D0E08091040180937001DB
:1003C0008091030180938A01CE01DF91CF9108953E
:1003D0002F923F92BF92CF92DF92EF92FF920F93B4
:1003E0001F93CF93DF9300D0CDB7DEB79A83898375
:1003F0006BDFE981FA81E930F10508F0B7C1EA5B0A
:10040000FF4FAAC481E090E09A83898311C282E001
:1004100090E09A83898309C2883009F006C2CBC173
:100420004091020180910801481304C084E090E0EB
:100430009A83898346956091010170E0609570957B
:1004400082E090E0FC01E059FE4F2081242391F0EE
:10045000FC01E657FE4F208130E026233723232B73
:1004600049F4FC01E059FE4F1082FC01E657FE4FB3
:10047000108299C101968A31910521F77CC1909132
:10048000020180910901981304C083E090E09A83EF
:100490008983CE0101961C0134DE6DC150910101AA
:1004A000B09107015B1310C0909102018091080187
:1004B000981305C087E090E09A8389830FC086E097
:1004C00090E09A8389830AC090910201809108018B
:1004D000981304C087E090E09A838983A091020179
:1004E0004A2F469582E090E0652F70E06095709508
:1004F000FC01E059FE4F20812423D9F0FC01E6578E
:10050000FE4F208130E026233723232B91F45B1309
:1005100005C028E030E03A83298304C027E030E0BA
:100520003A832983E2DD80912D018F5F80932D0135
:1005300022C101968A319105D9F610910801F980FE
:100540000A81652F70E060957095660F771F82E0D5
:1005500090E00F2EF6E0DF2EF02DE12C6894BB2406
:10056000B3F8C12CA11303C05B1303C017C05B1702
:10057000C1F0FC01E059FE4F20812423A1F0FC01D1
:10058000E657FE4F208130E026233723232B59F4F2
:1005900028E030E03A832983A8DDEDC0FB2C0C2D48
:1005A00002C0FD2C0E2D01968A319105D9F6F982F3
:1005B0000A83E1C050910101B09106015B1310C0A4
:1005C0009091020180910801981305C087E090E0A6
:1005D0009A8389830FC085E090E09A8389830AC05B
:1005E0009091020180910801981304C088E090E086
:1005F0009A838983A09102014A2F469582E090E078
:10060000652F70E060957095FC01E059FE4F2081E8
:100610002423D9F0FC01E657FE4F208130E0262349
:100620003723232B91F45B1305C027E030E03A8396
:10063000298304C028E030E03A83298356DD809185
:100640002D018F5F80932D0196C001968A3191050F
:10065000D9F610910801F9800A81652F66956068C6
:1006600070E06095709582E090E00F2EF5E0DF2E4F
:10067000F02DE12C0F2EF7E0BF2EF02DC12CA11391
:1006800003C05B1303C01CC05B17E9F0FC01E05919
:10069000FE4F20812423C9F0FC01E657FE4F208144
:1006A00030E026233723232B81F427E030E03A8300
:1006B00029831BDD80912D018F5F80932D015BC00D
:1006C000FB2C0C2D02C0FD2C0E2D01968A319105BC
:1006D000B1F6F9820A834FC090910201809109011D
:1006E000981759F09091010180910701981314C057
:1006F00088E090E09A8389830FC0909101018091F6
:100700000701981305C086E090E09A83898304C0AE
:1007100085E090E09A838983CE0101961C01F1DC8B
:100720002AC09091020180910901981310C0909104
:10073000010180910601981305C085E090E09A833D
:1007400089830FC086E090E09A8389830AC09091E4
:10075000010180910601981304C087E090E09A831C
:100760008983CE0101961C01CCDC05C081E090E0BC
:100770009A8389835DC089819A81FC013197E83031
:10078000F10508F049C0E15BFF4FE6C220E4209389
:1007900002012BEF209301013FC020910201269519
:1007A0002093020139C080910201880F80930201D9
:1007B00084E090E031C0809102018695809302012F
:1007C00080910101880F81608093010185E090E0B4
:1007D00023C020910201220F2093020120910101E8
:1007E000220F21602093010117C02091020126955C
:1007F0002093020120910101269520682093010198
:100800000BC020910201220F2093020120910101CF
:100810002695206820930101209102012093710107
:100820002091010120938B0106C089819A81F4CF28
:1008300089819A81ABCF0F900F90DF91CF911F915B
:100840000F91FF90EF90DF90CF90BF903F902F904F
:100850000895AF92BF92DF92EF92FF920F931F9392
:10086000CF93DF93EC0130DDC230D10539F0C330D6
:10087000D10509F487C0219729F47FC0883009F099
:1008800081C07EC040EF5FEF28EF3FEF82E090E055
:100890006894DD24D2F80AE110E0CFEFD0E0AFE7B2
:1008A000B0E06894EE24E1F8FF24F3948A309105D7
:1008B000F4F4FC01E059FE4FF082BC016250710972
:1008C000FD0102C0F595E7956A95E2F7662777275F
:1008D000621B730B5E0102C0AA0CBB1C6A95E2F797
:1008E000B5016E2BFC01E657FE4F60833AC02830FD
:1008F0003105D8F4FC01E059FE4FE08266277727E6
:10090000641B750BFE0102C0EE0FFF1F6A95E2F734
:10091000BD01022E02C0759567950A94E2F76E2B11
:10092000FC01E657FE4F60831CC048305105C8F4F7
:10093000FC01E059FE4FD082B801681B790BFE0123
:1009400002C0EE0FFF1F6A95E2F7BD01042E02C040
:10095000759567950A94E2F76E2BFC01E657FE4FFA
:10096000608301962F5F3F4F4F5F5F4F8A31910544
:1009700009F09CCFC1E0D0E005C0C2E0D0E002C0E9
:10098000C3E0D0E0CE01DF91CF911F910F91FF9096
:10099000EF90DF90BF90AF90089560930A0170933D
:1009A0000B0180930C0190930D0160932E017093C5
:1009B0002F01809330019093310108958BE0809353
:1009C00081008DE790E0909389008093880082E019
:1009D00080936F00109285001092840080910A012C
:1009E00090910B01A0910C01B0910D0180932E010B
:1009F00090932F01A0933001B09331018FB780689D
:100A00008FBF0895181619065CF008950000215054
:100A10003109E1F74F5F5F4F8417950719F4089587
:100A200040E050E027E033E0F1CF46988BB9479A99
:100A30000000479882E090E0E5CF089581E0F5CF8F
:100A40000895813118F48158F0CF08958155EDCF84
:100A5000089584E690E0D6DF88E3E7DF86E0E5DF0F
:100A60008FE0E3DF81E0E1DF8AE090E0CBCF089523
:100A7000469A8BB9479A0000479881E090E0C2CF30
:100A800008950F931F93CF93DF93182FEB01D6DFB9
:100A90008881882351F001E0010F812FD2DF8991F5
:100AA000E7DF102F88818111F6CFDF91CF911F9161
:100AB0000F910895CF930197029720F0BFDF81E057
:100AC00090E042C080912D01882309F43BC08091C1
:100AD00000018F5F8093000180912A018A3039F4F0
:100AE000809129018F5F8093290110922A018091C2
:100AF00028018A3039F480912A018F5F80932A017E
:100B000010922801C091280181E08C0F8093280168
:100B100081E097DF6EE071E081E0B3DF8091290131
:100B2000805DA6DF80912A01805DA2DF81E38C0FCA
:100B30009FDF80E39DDF80E384DF10922D0182E060
:100B400090E002C082E090E0CF910895EF92FF9292
:100B50000F931F93CF93DF93C3E3D1E00F2EFFE6F4
:100B6000EF2EF1E0FF2EF02D8E014E815F81688522
:100B700079858A819B81AC81BD81481759076A07B5
:100B80007B0758F0EA85FB858881998109959983CF
:100B900088831E821F8218861986F80186819781B4
:100BA000A085B1850196A11DB11D86839783A0877D
:100BB000B1872C96CE15DF05B9F681E0809332011E
:100BC000DF91CF911F910F91FF90EF9008951F92A9
:100BD0000F920FB60F9211240BB60F922F933F93E3
:100BE0004F935F936F937F938F939F93AF93BF9335
:100BF000EF93FF9380912E0190912F01A0913001EE
:100C0000B09131010197A109B10980932E01909310
:100C10002F01A0933001B0933101892B8A2B8B2BAC
:100C200089F494DF80910A0190910B01A0910C014D
:100C3000B0910D0180932E0190932F01A09330016C
:100C4000B0933101FF91EF91BF91AF919F918F913F
:100C50007F916F915F914F913F912F910F900BBEBC
:100C60000F900FBE0F901F9018958FEF81B912B89B
:100C700084B915B89BEF97B994E098B98AB91BB8B5
:100C8000E3E3F1E01182108282E390E0A0E0B0E0C3
:100C900082839383A483B58386839783A087B18758
:100CA00021E831E0338722871586148648EC50E02E
:100CB00060E070E046875787608B718B428B538B67
:100CC000648B758B28EE31E0378B268B118E108E5E
:100CD000828F938FA48FB58F868F978FA0A3B1A398
:100CE00089E294E093A382A315A214A281E090E08C
:100CF000A0E0B0E086A397A3A0A7B1A782A793A77F
:100D0000A4A7B5A788E391E097A786A711AA10AA80
:100D100080E293E0A0E0B0E082AB93ABA4ABB5ABD4
:100D200086AB97ABA0AFB1AF8AE595E093AF82AF4A
:100D300061E070E080E090E030DE40DE8ADE81E05D
:100D400080DE66E171E081E09CDE809132018823E3
:100D5000E1F310923201F9CFEE0FFF1F0024001CC7
:0E0D60000BBE0790F691E02D0994F894FFCF9A
:100D6E0001FB40F88002FE7F01800100000053432A
:100D7E004F52453A2000476F20746F20736C6565A3
:080D8E0070206E6F772E00004B
:00000001FF
