:1000000045C0000060C000005EC000005CC0000091
:100010005AC0000058C0000056C0000054C0000084
:1000200052C0000050C000004EC000004CC0000094
:100030004AC0000006C2000046C0000044C00000E4
:1000400042C0000040C000003EC000003CC00000B4
:100050003AC0000038C0000036C0000034C00000C4
:1000600032C0000030C000002EC000002CC00000D4
:100070002AC0000028C0000026C0000024C00000E4
:1000800022C0000020C000001EC0000011241FBEBE
:10009000CFEFD0E4DEBFCDBF11E0A0E0B1E0EAE7F2
:1000A000F5E000E00BBF02C007900D92AA30B10747
:1000B000D9F721E0AAE0B1E001C01D92AE32B2074B
:1000C000E1F70DD258C29CCF8230910581F0833088
:1000D000910511F00197B1F480912D0180930B01EE
:1000E00080912A0180930A0122E030E00DC08091C6
:1000F0002C0180930B018091110180930A0123E070
:1001000030E002C021E030E090910B0192B9909173
:100110000A0195B9C9010895419A419840E050E01B
:1001200080E026B130E02095309522FB662760F90B
:1001300070E09B01042E02C0220F331F0A94E2F7E5
:10014000822B409A40984F5F5F4F4830510549F7E6
:100150000895CF93DF93EC01DFDFC330D105A1F029
:100160003CF4C130D10569F1C230D10549F020C05D
:10017000C630D1050CF446C0C630D10551F018C0C8
:10018000883009F041C01DC0803401F18038C9F4C5
:1001900028C08823B1F090910401923020F49F5F31
:1001A0009093040131C0803489F0803869F519C01A
:1001B00080E88093030188EF80930201C1E0D0E0E2
:1001C00023C010920401C3E0D0E01EC08091020160
:1001D0008F3191F0880F816080930201C4E0D0E0FC
:1001E00013C080910201883F51F08695806880930A
:1001F0000201C5E0D0E008C0C4E0D0E005C0C5E021
:10020000D0E002C0C6E0D0E08091030180932D01D0
:100210008091020180932A01CE01DF91CF91089550
:10022000CF93DF93EC0178DFC530D105A1F044F422
:10023000C130D10509F480C0C230D10541F03BC0C6
:10024000C730D10501F18CF0289739F134C08830DE
:1002500009F074C039C0809101018F3709F450C092
:1002600080910001813081F53DC0809101018E3F78
:1002700029F480910001813039F534C0809100016A
:100280008130F1F54BC0809101018F3709F446C0F0
:1002900080910001803431F517C0809101018E3FBB
:1002A00029F4809100018034E9F40EC080910001AE
:1002B0008034A1F525C080E4809300018BEF80930A
:1002C0000101C1E0D0E03AC08091000186958093A1
:1002D000000180910101880F816080930101C5E0D8
:1002E000D0E02CC080910001880F809300018091A4
:1002F0000101880F816080930101C7E0D0E01EC03A
:10030000809100018695809300018091010186957E
:10031000806880930101C6E0D0E010C080910001A8
:10032000880F8093000180910101869580688093F9
:100330000101C8E0D0E002C0C2E0D0E0809100013D
:1003400080932C018091010180931101CE01DF91F6
:10035000CF91089560930501709306018093070182
:100360009093080160930C0170930D0180930E012E
:1003700090930F0108958BE0809381008DE790E0CA
:10038000909389008093880082E080936F001092A0
:100390008500109284008091050190910601A09142
:1003A0000701B091080180930C0190930D01A09377
:1003B0000E01B0930F018FB780688FBF0895EF9241
:1003C000FF920F931F93CF93DF93C2E1D1E00F2EE3
:1003D000F6E3EF2EF1E0FF2EF02D8E014E815F81CE
:1003E000688579858A819B81AC81BD8148175907D1
:1003F0006A077B0758F0EA85FB8588819981099512
:10040000998388831E821F8218861986F801868147
:100410009781A085B1858C599F4FAF4FBF4F868381
:100420009783A087B1872C96CE15DF05B1F681E0C2
:1004300080931001DF91CF911F910F91FF90EF906A
:1004400008951F920F920FB60F9211240BB60F92C0
:100450002F933F934F935F936F937F938F939F93CC
:10046000AF93BF93EF93FF9380910C0190910D0197
:10047000A0910E01B0910F010197A109B1098093DC
:100480000C0190930D01A0930E01B0930F01892BE5
:100490008A2B8B2B89F493DF8091050190910601C3
:1004A000A0910701B091080180930C0190930D0178
:1004B000A0930E01B0930F01FF91EF91BF91AF9107
:1004C0009F918F917F916F915F914F913F912F916C
:1004D0000F900BBE0F900FBE0F901F9018958FEFCF
:1004E00084B915B881B912B883E087B984E088B9B6
:1004F000E2E1F1E021E030E03183208384E690E026
:10050000A0E0B0E082839383A483B583868397833E
:10051000A087B18749EA50E053874287358724870F
:1005200048EC50E060E070E046875787608B718B45
:10053000428B538B648B758B40E151E0578B468B1C
:10054000318F208F828F938FA48FB58F868F978F57
:10055000A0A3B1A384E690E093A382A364E670E035
:1005600080E090E0F7DE07DF809110018823E1F35F
:0A05700010921001F9CFF894FFCFAC
:0A057A0040FDF880020100000000BF
:00000001FF
