S02200004353313230425F46696E616C5F50726F6A6563745F50617274322E73726563F0
S113000045C0000060C000005EC000005CC000008D
S11300105AC0000058C0000056C0000054C0000080
S113002052C0000050C000004EC000004CC0000090
S11300304AC000006EC2000046C0000044C0000078
S113004042C0000040C000003EC000003CC00000B0
S11300503AC0000038C0000036C0000034C00000C0
S113006032C0000030C000002EC000002CC00000D0
S11300702AC0000028C0000026C0000024C00000E0
S113008022C0000020C000001EC0000011241FBEBA
S1130090CFEFD0E4DEBFCDBF11E0A0E0B1E0E2E7F6
S11300A0F6E000E00BBF02C007900D92AA30B10742
S11300B0D9F721E0AAE0B1E001C01D92A136B20750
S11300C0E1F775D2D4C29CCF01970297E8F4E0918E
S11300D00A01F0E0EF5BFE4F808182B9E0910A01F2
S11300E0F0E0EF5AFE4F808185B980910A018F308C
S11300F029F410920A0182E090E008958F5F8093C2
S11301000A0182E090E0089581E090E00895419A28
S1130110419840E050E080E026B130E020953095F1
S113012022FB662760F970E09B01042E02C0220FB7
S1130130331F0A94E2F7822B409A40984F5F5F4F37
S11301404830510549F70895CF93DF93EC01DFDF81
S1130150C330D105A1F03CF4C130D10569F1C230FE
S1130160D10549F020C0C630D1050CF446C0C630D4
S1130170D10551F018C0883009F041C01DC0803449
S113018001F18038C9F428C08823B1F090910401AA
S1130190923020F49F5F9093040131C0803489F041
S11301A0803869F519C080E88093030188EF809353
S11301B00201C1E0D0E023C010920401C3E0D0E00A
S11301C01EC0809102018F3191F0880F816080936D
S11301D00201C4E0D0E013C080910201883F51F0D5
S11301E08695806880930201C5E0D0E008C0C4E031
S11301F0D0E005C0C5E0D0E002C0C6E0D0E0809108
S11302000301809341018091020180935101CE0149
S1130210DF91CF910895CF93DF93EC0178DFC53060
S1130220D105A9F044F4C130D10509F4B3C0C230FA
S1130230D10549F05CC0C730D105E1F15CF12897E4
S113024009F446C054C0883009F0B6C087C0809114
S113025001018F3741F480910001813009F09DC084
S1130260C7E0D0E09FC080910001813009F09AC0BE
S113027097C0F901EF5BFE4F808190E084239523C2
S1130280892B11F0C72FD62F2F5F3F4F2031310517
S113029081F72FC0809101018E3F31F480910001DC
S11302A0813009F03FC04CC080910001813009F0D9
S11302B055C062C080910001803829F0809101010D
S11302C08F37F1F559C0809101018F3759F546C038
S11302D0809101018E3F29F480910001803881F5DD
S11302E021C080910001803809F046C037C0C1E0C8
S11302F0D0E0C630D10591F13CF4C130D10559F0BC
S1130300C530D10579F058C0C730D105C9F0C8301F
S1130310D10591F151C080E4809300018BEF80936B
S113032001014AC08091000186958093000180916B
S11303300101880F816080930101C5E0D0E03CC0D9
S113034080910001880F8093000180910101880F42
S1130350816080930101C7E0D0E02EC0809100014C
S11303608695809300018091010186958068809331
S11303700101C6E0D0E020C080910001880F809385
S11303800001809101018695806880930101C8E095
S1130390D0E012C0C2E0D0E00FC0C6E0D0E002C09E
S11303A0C7E0D0E04091000150E0440F551F22E027
S11303B030E077E060E05DCF8091000180934201FE
S11303C08091010180935201CE01DF91CF91089574
S11303D0CF93DF93EC019BDEC230D10531F0C33003
S11303E0D105E9F0219721F415C08830C1F415C076
S11303F082E090E027E0FC01EF5BFE4F2083FC01EC
S1130400EF5AFE4F1082019680319105A1F7C1E0A9
S1130410D0E005C0C2E0D0E002C0C3E0D0E0CE012D
S1130420DF91CF9108956093050170930601809345
S113043007019093080160930B0170930C01809362
S11304400D0190930E0108958BE0809381008DE758
S113045090E0909389008093880082E080936F00FD
S113046010928500109284008091050190910601FC
S1130470A0910701B091080180930B0190930C01A6
S1130480A0930D01B0930E018FB780688FBF0895BC
S1130490EF92FF920F931F93CF93DF93C0E1D1E0CC
S11304A00F2EF0E4EF2EF1E0FF2EF02D8E014E81A1
S11304B05F81688579858A819B81AC81BD8148177C
S11304C059076A077B0758F0EA85FB85888199817B
S11304D00995998388831E821F8218861986F801DC
S11304E086819781A085B1850196A11DB11D868362
S11304F09783A087B1872C96CE15DF05B9F681E0E6
S113050080930F01DF91CF911F910F91FF90EF9096
S113051008951F920F920FB60F9211240BB60F92EB
S11305202F933F934F935F936F937F938F939F93F7
S1130530AF93BF93EF93FF9380910B0190910C01C4
S1130540A0910D01B0910E010197A109B109809309
S11305500B0190930C01A0930D01B0930E01892B14
S11305608A2B8B2B89F494DF8091050190910601ED
S1130570A0910701B091080180930B0190930C01A5
S1130580A0930D01B0930E01FF91EF91BF91AF9134
S11305909F918F917F916F915F914F913F912F9197
S11305A00F900BBE0F900FBE0F901F9018958FEFFA
S11305B084B915B881B912B883E087B984E088B9E1
S11305C0E0E1F1E01182108282E390E0A0E0B0E08B
S11305D082839383A483B58386839783A087B1871B
S11305E084EA90E0938782871586148684EF91E0ED
S11305F0A0E0B0E086879787A08BB18B828B938B2A
S1130600A48BB58B8BE091E0978B868B118E108E2B
S113061085E090E0A0E0B0E0828F938FA48FB58F47
S1130620868F978FA0A3B1A388EE91E093A382A3B2
S113063015A214A281E090E0A0E0B0E086A397A305
S1130640A0A7B1A782A793A7A4A7B5A784E690E023
S113065097A786A761E070E080E090E0E4DEF4DE36
S113066080910F018823E1F310920F01F9CFF894E0
S1050670FFCFB6
S10D067240FBF880020100000000C4
S9030000FC
