:100000004CC0000067C0000065C0000063C0000075
:1000100061C000005FC000005DC000005BC0000068
:1000200059C0000057C0000055C0000053C0000078
:1000300051C0000074C000004DC000004BC0000063
:1000400049C0000047C0000045C0000043C0000098
:1000500041C000003FC000003DC000003BC00000A8
:1000600039C0000037C0000035C0000033C00000B8
:1000700031C000002FC000002DC000002BC00000C8
:1000800029C0000027C0000025C00000D600DA000B
:10009000DE00E300F900E900030111241FBECFEFE9
:1000A000D0E4DEBFCDBF11E0A0E0B1E0E2E9F2E0D4
:1000B00000E00BBF02C007900D92A430B107D9F742
:1000C00021E0A4E0B1E001C01D92AC30B207E1F73D
:1000D000BED0DDC095CF8BE0809381008DE790E0AE
:1000E000909389008093880082E080936F00109243
:1000F0008500109284008091000190910101A091EF
:100100000201B09103018093060190930701A0932F
:100110000801B09309018FB780688FBF08951F92BF
:100120000F920FB60F9211248F939F93AF93BF93AB
:100130008091060190910701A0910801B0910901F9
:100140000197A109B1098093060190930701A0933B
:100150000801B0930901892B8A2B8B2B99F481E03C
:1001600080930A018091000190910101A091020108
:10017000B09103018093060190930701A0930801B9
:10018000B0930901BF91AF919F918F910F900FBED6
:100190000F901F901895E0910B018E2F90E0873003
:1001A0009105A8F5FC01EA5BFF4F68C081E08093F0
:1001B0000B0130C082E080930B012FC083E080935D
:1001C0000B0115B8089585E080930B01109204018E
:1001D00029C080910401883030F484E080930B01C1
:1001E00081E085B9089582E080930B0110920401AB
:1001F00014C086E080930B0115B8809104018F5FD5
:1002000080930401089585E080930B010BC081E089
:1002100080930B011092050108951092050182E070
:1002200085B9089583B190E08095909582FB22274F
:1002300020F930E00090040102C0220F331F0A941D
:10024000E2F780910501282B2093050108958BEF9B
:1002500084B984E085B98FEF87B918B83CDF9BDF9C
:1002600080910A01811106C010920A0180910A0151
:100270008823D1F38091050188B9F1CFEE0FFF1FDC
:100280000024001C0BBE0790F691E02D0994F89411
:02029000FFCF9E
:040292000100000067
:00000001FF
